{
  "_format": "hh3-artifact-1",
  "contractName": "MarketPlace",
  "sourceName": "contracts/MarketPlace.sol",
  "abi": [
    {
      "inputs": [
        {
          "internalType": "address",
          "name": "owner",
          "type": "address"
        }
      ],
      "stateMutability": "nonpayable",
      "type": "constructor"
    },
    {
      "inputs": [],
      "name": "ReentrancyGuardReentrantCall",
      "type": "error"
    },
    {
      "anonymous": false,
      "inputs": [
        {
          "indexed": false,
          "internalType": "uint256",
          "name": "id",
          "type": "uint256"
        },
        {
          "indexed": true,
          "internalType": "address",
          "name": "creator",
          "type": "address"
        },
        {
          "indexed": true,
          "internalType": "address",
          "name": "owner",
          "type": "address"
        },
        {
          "indexed": false,
          "internalType": "uint256",
          "name": "tokenId",
          "type": "uint256"
        },
        {
          "indexed": false,
          "internalType": "uint256",
          "name": "price",
          "type": "uint256"
        },
        {
          "indexed": false,
          "internalType": "bool",
          "name": "isForSale",
          "type": "bool"
        }
      ],
      "name": "AssetCreated",
      "type": "event"
    },
    {
      "anonymous": false,
      "inputs": [
        {
          "indexed": false,
          "internalType": "uint256",
          "name": "id",
          "type": "uint256"
        },
        {
          "indexed": true,
          "internalType": "address",
          "name": "seller",
          "type": "address"
        },
        {
          "indexed": false,
          "internalType": "bool",
          "name": "isForSale",
          "type": "bool"
        }
      ],
      "name": "AssetForSale",
      "type": "event"
    },
    {
      "anonymous": false,
      "inputs": [
        {
          "indexed": false,
          "internalType": "uint256",
          "name": "id",
          "type": "uint256"
        },
        {
          "indexed": true,
          "internalType": "address",
          "name": "seller",
          "type": "address"
        },
        {
          "indexed": false,
          "internalType": "uint256",
          "name": "price",
          "type": "uint256"
        }
      ],
      "name": "AssetPriceUpdated",
      "type": "event"
    },
    {
      "anonymous": false,
      "inputs": [
        {
          "indexed": false,
          "internalType": "uint256",
          "name": "id",
          "type": "uint256"
        },
        {
          "indexed": true,
          "internalType": "address",
          "name": "seller",
          "type": "address"
        }
      ],
      "name": "AssetRemoved",
      "type": "event"
    },
    {
      "anonymous": false,
      "inputs": [
        {
          "indexed": false,
          "internalType": "uint256",
          "name": "id",
          "type": "uint256"
        },
        {
          "indexed": true,
          "internalType": "address",
          "name": "seller",
          "type": "address"
        },
        {
          "indexed": true,
          "internalType": "address",
          "name": "buyer",
          "type": "address"
        },
        {
          "indexed": false,
          "internalType": "uint256",
          "name": "tokenId",
          "type": "uint256"
        },
        {
          "indexed": false,
          "internalType": "uint256",
          "name": "price",
          "type": "uint256"
        }
      ],
      "name": "AssetSold",
      "type": "event"
    },
    {
      "inputs": [],
      "name": "_feePercent",
      "outputs": [
        {
          "internalType": "uint256",
          "name": "",
          "type": "uint256"
        }
      ],
      "stateMutability": "view",
      "type": "function"
    },
    {
      "inputs": [
        {
          "internalType": "uint256",
          "name": "id",
          "type": "uint256"
        }
      ],
      "name": "buyAsset",
      "outputs": [],
      "stateMutability": "payable",
      "type": "function"
    },
    {
      "inputs": [
        {
          "internalType": "address",
          "name": "tokenAddress",
          "type": "address"
        },
        {
          "internalType": "uint256",
          "name": "tokenId",
          "type": "uint256"
        },
        {
          "internalType": "uint256",
          "name": "price",
          "type": "uint256"
        }
      ],
      "name": "createAsset",
      "outputs": [],
      "stateMutability": "payable",
      "type": "function"
    },
    {
      "inputs": [
        {
          "internalType": "address",
          "name": "tokenAddress",
          "type": "address"
        }
      ],
      "name": "getAllAssets",
      "outputs": [
        {
          "internalType": "uint256[]",
          "name": "ids",
          "type": "uint256[]"
        },
        {
          "internalType": "address[]",
          "name": "owners",
          "type": "address[]"
        },
        {
          "internalType": "uint256[]",
          "name": "tokenIds",
          "type": "uint256[]"
        },
        {
          "internalType": "uint256[]",
          "name": "prices",
          "type": "uint256[]"
        },
        {
          "internalType": "bool[]",
          "name": "isForSales",
          "type": "bool[]"
        }
      ],
      "stateMutability": "view",
      "type": "function"
    },
    {
      "inputs": [
        {
          "internalType": "uint256",
          "name": "id",
          "type": "uint256"
        }
      ],
      "name": "getAsset",
      "outputs": [
        {
          "components": [
            {
              "internalType": "uint256",
              "name": "id",
              "type": "uint256"
            },
            {
              "internalType": "address",
              "name": "owner",
              "type": "address"
            },
            {
              "internalType": "address",
              "name": "creator",
              "type": "address"
            },
            {
              "internalType": "address",
              "name": "tokenAddress",
              "type": "address"
            },
            {
              "internalType": "uint256",
              "name": "tokenId",
              "type": "uint256"
            },
            {
              "internalType": "uint256",
              "name": "price",
              "type": "uint256"
            },
            {
              "internalType": "bool",
              "name": "isForSale",
              "type": "bool"
            }
          ],
          "internalType": "struct MarketPlace.Asset",
          "name": "",
          "type": "tuple"
        }
      ],
      "stateMutability": "view",
      "type": "function"
    },
    {
      "inputs": [
        {
          "internalType": "uint256",
          "name": "id",
          "type": "uint256"
        }
      ],
      "name": "getAssetPrice",
      "outputs": [
        {
          "internalType": "uint256",
          "name": "",
          "type": "uint256"
        }
      ],
      "stateMutability": "view",
      "type": "function"
    },
    {
      "inputs": [],
      "name": "getMarketFee",
      "outputs": [
        {
          "internalType": "uint256",
          "name": "",
          "type": "uint256"
        }
      ],
      "stateMutability": "view",
      "type": "function"
    },
    {
      "inputs": [],
      "name": "getRequestedAsset",
      "outputs": [
        {
          "components": [
            {
              "internalType": "uint256",
              "name": "id",
              "type": "uint256"
            },
            {
              "internalType": "address",
              "name": "owner",
              "type": "address"
            },
            {
              "internalType": "address",
              "name": "creator",
              "type": "address"
            },
            {
              "internalType": "address",
              "name": "tokenAddress",
              "type": "address"
            },
            {
              "internalType": "uint256",
              "name": "tokenId",
              "type": "uint256"
            },
            {
              "internalType": "uint256",
              "name": "price",
              "type": "uint256"
            },
            {
              "internalType": "bool",
              "name": "isForSale",
              "type": "bool"
            }
          ],
          "internalType": "struct MarketPlace.Asset[]",
          "name": "",
          "type": "tuple[]"
        }
      ],
      "stateMutability": "view",
      "type": "function"
    },
    {
      "inputs": [
        {
          "internalType": "address",
          "name": "operator",
          "type": "address"
        },
        {
          "internalType": "address",
          "name": "from",
          "type": "address"
        },
        {
          "internalType": "uint256",
          "name": "tokenId",
          "type": "uint256"
        },
        {
          "internalType": "bytes",
          "name": "data",
          "type": "bytes"
        }
      ],
      "name": "onERC721Received",
      "outputs": [
        {
          "internalType": "bytes4",
          "name": "",
          "type": "bytes4"
        }
      ],
      "stateMutability": "nonpayable",
      "type": "function"
    },
    {
      "inputs": [
        {
          "internalType": "uint256",
          "name": "id",
          "type": "uint256"
        },
        {
          "internalType": "address",
          "name": "tokenAddress",
          "type": "address"
        }
      ],
      "name": "removeAsset",
      "outputs": [],
      "stateMutability": "nonpayable",
      "type": "function"
    },
    {
      "inputs": [
        {
          "internalType": "uint256",
          "name": "id",
          "type": "uint256"
        },
        {
          "internalType": "bool",
          "name": "isForSale",
          "type": "bool"
        }
      ],
      "name": "setForSale",
      "outputs": [],
      "stateMutability": "nonpayable",
      "type": "function"
    },
    {
      "inputs": [
        {
          "internalType": "uint256",
          "name": "fee",
          "type": "uint256"
        }
      ],
      "name": "setMarketFee",
      "outputs": [],
      "stateMutability": "nonpayable",
      "type": "function"
    },
    {
      "inputs": [
        {
          "internalType": "uint256",
          "name": "id",
          "type": "uint256"
        },
        {
          "internalType": "uint256",
          "name": "newPrice",
          "type": "uint256"
        }
      ],
      "name": "updateAssetPrice",
      "outputs": [],
      "stateMutability": "nonpayable",
      "type": "function"
    }
  ],
  "bytecode": "0x60806040526005600255348015610014575f5ffd5b50604051612e01380380612e01833981810160405281019061003691906100e1565b60015f819055508060035f6101000a81548173ffffffffffffffffffffffffffffffffffffffff021916908373ffffffffffffffffffffffffffffffffffffffff1602179055505061010c565b5f5ffd5b5f73ffffffffffffffffffffffffffffffffffffffff82169050919050565b5f6100b082610087565b9050919050565b6100c0816100a6565b81146100ca575f5ffd5b50565b5f815190506100db816100b7565b92915050565b5f602082840312156100f6576100f5610083565b5b5f610103848285016100cd565b91505092915050565b612ce8806101195f395ff3fe6080604052600436106100c1575f3560e01c80635e694cf51161007e578063963986fe11610058578063963986fe1461025b578063c4479ec614610283578063eac8f5b8146102ab578063f0a6c16b146102e7576100c1565b80635e694cf5146101b557806369222948146101f157806387db57051461021b576100c1565b8063110d35b8146100c5578063150b7a02146100e157806326b825d21461011d57806346ff089114610145578063505d3c3a1461016f5780635e123add1461018b575b5f5ffd5b6100df60048036038101906100da9190611ba7565b61030f565b005b3480156100ec575f5ffd5b5061010760048036038101906101029190611c8d565b6106bd565b6040516101149190611d4b565b60405180910390f35b348015610128575f5ffd5b50610143600480360381019061013e9190611ba7565b6106d1565b005b348015610150575f5ffd5b506101596107f0565b6040516101669190611ed0565b60405180910390f35b61018960048036038101906101849190611ef0565b610a7b565b005b348015610196575f5ffd5b5061019f610d9c565b6040516101ac9190611f4f565b60405180910390f35b3480156101c0575f5ffd5b506101db60048036038101906101d69190611ba7565b610da5565b6040516101e89190611f4f565b60405180910390f35b3480156101fc575f5ffd5b50610205610dc2565b6040516102129190611f4f565b60405180910390f35b348015610226575f5ffd5b50610241600480360381019061023c9190611f68565b610dc8565b60405161025295949392919061218b565b60405180910390f35b348015610266575f5ffd5b50610281600480360381019061027c91906121ff565b6113b8565b005b34801561028e575f5ffd5b506102a960048036038101906102a4919061223d565b6115e2565b005b3480156102b6575f5ffd5b506102d160048036038101906102cc9190611ba7565b611737565b6040516102de9190612307565b60405180910390f35b3480156102f2575f5ffd5b5061030d6004803603810190610308919061234a565b611898565b005b6103176119bb565b5f60045f8381526020019081526020015f209050806006015f9054906101000a900460ff1661037b576040517f08c379a0000000000000000000000000000000000000000000000000000000008152600401610372906123e2565b60405180910390fd5b80600501543410156103c2576040517f08c379a00000000000000000000000000000000000000000000000000000000081526004016103b99061244a565b60405180910390fd5b5f606460025483600501546103d79190612495565b6103e19190612503565b90505f8183600501546103f49190612533565b905060035f9054906101000a900473ffffffffffffffffffffffffffffffffffffffff1673ffffffffffffffffffffffffffffffffffffffff166108fc8390811502906040515f60405180830381858888f1935050505015801561045a573d5f5f3e3d5ffd5b50826001015f9054906101000a900473ffffffffffffffffffffffffffffffffffffffff1673ffffffffffffffffffffffffffffffffffffffff166108fc8290811502906040515f60405180830381858888f193505050501580156104c1573d5f5f3e3d5ffd5b50826003015f9054906101000a900473ffffffffffffffffffffffffffffffffffffffff1673ffffffffffffffffffffffffffffffffffffffff166342842e0e303386600401546040518463ffffffff1660e01b815260040161052693929190612575565b5f604051808303815f87803b15801561053d575f5ffd5b505af115801561054f573d5f5f3e3d5ffd5b505050505f836006015f6101000a81548160ff021916908315150217905550826003015f9054906101000a900473ffffffffffffffffffffffffffffffffffffffff1673ffffffffffffffffffffffffffffffffffffffff163373ffffffffffffffffffffffffffffffffffffffff167fae0a5043fad0418cf5fe7aecc5bc470022b72ed7985bc2e6b2cbfb922626ee5786866004015487600501546040516105fa939291906125aa565b60405180910390a360045f8581526020019081526020015f205f5f82015f9055600182015f6101000a81549073ffffffffffffffffffffffffffffffffffffffff0219169055600282015f6101000a81549073ffffffffffffffffffffffffffffffffffffffff0219169055600382015f6101000a81549073ffffffffffffffffffffffffffffffffffffffff0219169055600482015f9055600582015f9055600682015f6101000a81549060ff021916905550505050506106ba6119ff565b50565b5f63150b7a0260e01b905095945050505050565b60035f9054906101000a900473ffffffffffffffffffffffffffffffffffffffff1673ffffffffffffffffffffffffffffffffffffffff163373ffffffffffffffffffffffffffffffffffffffff1614610760576040517f08c379a00000000000000000000000000000000000000000000000000000000081526004016107579061264f565b60405180910390fd5b60328111156107a4576040517f08c379a000000000000000000000000000000000000000000000000000000000815260040161079b906126b7565b60405180910390fd5b5f81116107e6576040517f08c379a00000000000000000000000000000000000000000000000000000000081526004016107dd9061271f565b60405180910390fd5b8060028190555050565b60605f60015490505f5f90505f600190505b8281116108505760045f8281526020019081526020015f206006015f9054906101000a900460ff1661083d5781806108399061273d565b9250505b80806108489061273d565b915050610802565b505f8167ffffffffffffffff81111561086c5761086b612784565b5b6040519080825280602002602001820160405280156108a557816020015b610892611ae8565b81526020019060019003908161088a5790505b5090505f5f90505f600190505b848111610a705760045f8281526020019081526020015f206006015f9054906101000a900460ff16610a5d5760045f8281526020019081526020015f206040518060e00160405290815f8201548152602001600182015f9054906101000a900473ffffffffffffffffffffffffffffffffffffffff1673ffffffffffffffffffffffffffffffffffffffff1673ffffffffffffffffffffffffffffffffffffffff168152602001600282015f9054906101000a900473ffffffffffffffffffffffffffffffffffffffff1673ffffffffffffffffffffffffffffffffffffffff1673ffffffffffffffffffffffffffffffffffffffff168152602001600382015f9054906101000a900473ffffffffffffffffffffffffffffffffffffffff1673ffffffffffffffffffffffffffffffffffffffff1673ffffffffffffffffffffffffffffffffffffffff1681526020016004820154815260200160058201548152602001600682015f9054906101000a900460ff161515151581525050838381518110610a4357610a426127b1565b5b60200260200101819052508180610a599061273d565b9250505b8080610a689061273d565b9150506108b2565b508194505050505090565b610a836119bb565b5f811015610ac6576040517f08c379a0000000000000000000000000000000000000000000000000000000008152600401610abd90612828565b60405180910390fd5b610b056040518060400160405280601a81526020017f4372656174696e6720617373657420776974682070726963653a00000000000081525082611a08565b5f60015f815480929190610b189061273d565b9190505590506040518060e001604052808281526020013373ffffffffffffffffffffffffffffffffffffffff1681526020013373ffffffffffffffffffffffffffffffffffffffff1681526020018573ffffffffffffffffffffffffffffffffffffffff1681526020018481526020018381526020015f151581525060045f8381526020019081526020015f205f820151815f01556020820151816001015f6101000a81548173ffffffffffffffffffffffffffffffffffffffff021916908373ffffffffffffffffffffffffffffffffffffffff1602179055506040820151816002015f6101000a81548173ffffffffffffffffffffffffffffffffffffffff021916908373ffffffffffffffffffffffffffffffffffffffff1602179055506060820151816003015f6101000a81548173ffffffffffffffffffffffffffffffffffffffff021916908373ffffffffffffffffffffffffffffffffffffffff1602179055506080820151816004015560a0820151816005015560c0820151816006015f6101000a81548160ff0219169083151502179055509050508373ffffffffffffffffffffffffffffffffffffffff166342842e0e3330866040518463ffffffff1660e01b8152600401610cf393929190612575565b5f604051808303815f87803b158015610d0a575f5ffd5b505af1158015610d1c573d5f5f3e3d5ffd5b505050503373ffffffffffffffffffffffffffffffffffffffff163373ffffffffffffffffffffffffffffffffffffffff167fe86b2962fb9ab779e7d1872c807a1f358061fbf2038bf7549a25766e3dd45bf160015486866001604051610d869493929190612855565b60405180910390a350610d976119ff565b505050565b5f600254905090565b5f60045f8381526020019081526020015f20600501549050919050565b60025481565b60608060608060605f8690505f8173ffffffffffffffffffffffffffffffffffffffff166370a08231306040518263ffffffff1660e01b8152600401610e0e9190612898565b602060405180830381865afa158015610e29573d5f5f3e3d5ffd5b505050506040513d601f19601f82011682018060405250810190610e4d91906128c5565b90505f8273ffffffffffffffffffffffffffffffffffffffff166306661abd6040518163ffffffff1660e01b8152600401602060405180830381865afa158015610e99573d5f5f3e3d5ffd5b505050506040513d601f19601f82011682018060405250810190610ebd91906128c5565b90505f8267ffffffffffffffff811115610eda57610ed9612784565b5b604051908082528060200260200182016040528015610f085781602001602082028036833780820191505090505b5090505f8367ffffffffffffffff811115610f2657610f25612784565b5b604051908082528060200260200182016040528015610f545781602001602082028036833780820191505090505b5090505f8467ffffffffffffffff811115610f7257610f71612784565b5b604051908082528060200260200182016040528015610fa05781602001602082028036833780820191505090505b5090505f8567ffffffffffffffff811115610fbe57610fbd612784565b5b604051908082528060200260200182016040528015610fec5781602001602082028036833780820191505090505b5090505f8667ffffffffffffffff81111561100a57611009612784565b5b6040519080825280602002602001820160405280156110385781602001602082028036833780820191505090505b5090505f5f90505b86811015611227573073ffffffffffffffffffffffffffffffffffffffff168973ffffffffffffffffffffffffffffffffffffffff16636352211e836040518263ffffffff1660e01b81526004016110989190611f4f565b602060405180830381865afa1580156110b3573d5f5f3e3d5ffd5b505050506040513d601f19601f820116820180604052508101906110d79190612904565b73ffffffffffffffffffffffffffffffffffffffff160361121a575f60045f8381526020019081526020015f209050805f015487838151811061111d5761111c6127b1565b5b602002602001018181525050806001015f9054906101000a900473ffffffffffffffffffffffffffffffffffffffff168683815181106111605761115f6127b1565b5b602002602001019073ffffffffffffffffffffffffffffffffffffffff16908173ffffffffffffffffffffffffffffffffffffffff168152505080600401548583815181106111b2576111b16127b1565b5b60200260200101818152505080600501548483815181106111d6576111d56127b1565b5b602002602001018181525050806006015f9054906101000a900460ff16838381518110611206576112056127b1565b5b602002602001019015159081151581525050505b8080600101915050611040565b506112676040518060400160405280601c81526020017f546f74616c2061737365747320696e206d61726b6574706c6163653a0000000081525088611a08565b6112a66040518060400160405280601581526020017f546f74616c2061737365747320636f756e7465643a000000000000000000000081525087611a08565b6112e66040518060400160405280600f81526020017f416c6c20494473206c656e6774683a00000000000000000000000000000000008152508651611a08565b61133f6040518060400160405280600981526020017f46697273742049443a0000000000000000000000000000000000000000000000815250865f81518110611332576113316127b1565b5b6020026020010151611a08565b6113986040518060400160405280600981526020017f46697273742049443a0000000000000000000000000000000000000000000000815250845f8151811061138b5761138a6127b1565b5b6020026020010151611a08565b84848484849c509c509c509c509c50505050505050505091939590929450565b6113c06119bb565b5f60045f8481526020019081526020015f2090503373ffffffffffffffffffffffffffffffffffffffff16816001015f9054906101000a900473ffffffffffffffffffffffffffffffffffffffff1673ffffffffffffffffffffffffffffffffffffffff1614611465576040517f08c379a000000000000000000000000000000000000000000000000000000000815260040161145c9061299f565b60405180910390fd5b8173ffffffffffffffffffffffffffffffffffffffff16816003015f9054906101000a900473ffffffffffffffffffffffffffffffffffffffff1673ffffffffffffffffffffffffffffffffffffffff16146114f6576040517f08c379a00000000000000000000000000000000000000000000000000000000081526004016114ed90612a07565b60405180910390fd5b806003015f9054906101000a900473ffffffffffffffffffffffffffffffffffffffff1673ffffffffffffffffffffffffffffffffffffffff166342842e0e303384600401546040518463ffffffff1660e01b815260040161155a93929190612575565b5f604051808303815f87803b158015611571575f5ffd5b505af1158015611583573d5f5f3e3d5ffd5b505050503373ffffffffffffffffffffffffffffffffffffffff167f03c0a1eb08ee9b373b2eee0ff81874c2eecc632e962925ae0fa3cfac84c594f0846040516115cd9190611f4f565b60405180910390a2506115de6119ff565b5050565b6115ea6119bb565b5f60045f8481526020019081526020015f2090503373ffffffffffffffffffffffffffffffffffffffff16816001015f9054906101000a900473ffffffffffffffffffffffffffffffffffffffff1673ffffffffffffffffffffffffffffffffffffffff161461168f576040517f08c379a000000000000000000000000000000000000000000000000000000000815260040161168690612a95565b60405180910390fd5b5f82116116d1576040517f08c379a00000000000000000000000000000000000000000000000000000000081526004016116c890612afd565b60405180910390fd5b8181600501819055503373ffffffffffffffffffffffffffffffffffffffff167fef5e5e4d1d6e180b49b2c8aecd91c4fcea953dd09e2f77c4bd4f60793a1cf3f18484604051611722929190612b1b565b60405180910390a2506117336119ff565b5050565b61173f611ae8565b60045f8381526020019081526020015f206040518060e00160405290815f8201548152602001600182015f9054906101000a900473ffffffffffffffffffffffffffffffffffffffff1673ffffffffffffffffffffffffffffffffffffffff1673ffffffffffffffffffffffffffffffffffffffff168152602001600282015f9054906101000a900473ffffffffffffffffffffffffffffffffffffffff1673ffffffffffffffffffffffffffffffffffffffff1673ffffffffffffffffffffffffffffffffffffffff168152602001600382015f9054906101000a900473ffffffffffffffffffffffffffffffffffffffff1673ffffffffffffffffffffffffffffffffffffffff1673ffffffffffffffffffffffffffffffffffffffff1681526020016004820154815260200160058201548152602001600682015f9054906101000a900460ff1615151515815250509050919050565b6118a06119bb565b3373ffffffffffffffffffffffffffffffffffffffff1660035f9054906101000a900473ffffffffffffffffffffffffffffffffffffffff1673ffffffffffffffffffffffffffffffffffffffff161461192f576040517f08c379a000000000000000000000000000000000000000000000000000000000815260040161192690612bb2565b60405180910390fd5b5f60045f8481526020019081526020015f20905081816006015f6101000a81548160ff0219169083151502179055503373ffffffffffffffffffffffffffffffffffffffff167fc8aab00aa7fd5b79dc4c651eeb3998a09c5aa10e6a2deb9967a63bbec59865cc84846040516119a6929190612bd0565b60405180910390a2506119b76119ff565b5050565b60025f54036119f6576040517f3ee5aeb500000000000000000000000000000000000000000000000000000000815260040160405180910390fd5b60025f81905550565b60015f81905550565b611aa08282604051602401611a1e929190612c57565b6040516020818303038152906040527fb60e72cc000000000000000000000000000000000000000000000000000000007bffffffffffffffffffffffffffffffffffffffffffffffffffffffff19166020820180517bffffffffffffffffffffffffffffffffffffffffffffffffffffffff8381831617835250505050611aa4565b5050565b611abb81611ab3611abe611add565b63ffffffff16565b50565b5f6a636f6e736f6c652e6c6f6790505f5f835160208501845afa505050565b611b62819050919050565b6040518060e001604052805f81526020015f73ffffffffffffffffffffffffffffffffffffffff1681526020015f73ffffffffffffffffffffffffffffffffffffffff1681526020015f73ffffffffffffffffffffffffffffffffffffffff1681526020015f81526020015f81526020015f151581525090565b611b6a612c85565b565b5f5ffd5b5f5ffd5b5f819050919050565b611b8681611b74565b8114611b90575f5ffd5b50565b5f81359050611ba181611b7d565b92915050565b5f60208284031215611bbc57611bbb611b6c565b5b5f611bc984828501611b93565b91505092915050565b5f73ffffffffffffffffffffffffffffffffffffffff82169050919050565b5f611bfb82611bd2565b9050919050565b611c0b81611bf1565b8114611c15575f5ffd5b50565b5f81359050611c2681611c02565b92915050565b5f5ffd5b5f5ffd5b5f5ffd5b5f5f83601f840112611c4d57611c4c611c2c565b5b8235905067ffffffffffffffff811115611c6a57611c69611c30565b5b602083019150836001820283011115611c8657611c85611c34565b5b9250929050565b5f5f5f5f5f60808688031215611ca657611ca5611b6c565b5b5f611cb388828901611c18565b9550506020611cc488828901611c18565b9450506040611cd588828901611b93565b935050606086013567ffffffffffffffff811115611cf657611cf5611b70565b5b611d0288828901611c38565b92509250509295509295909350565b5f7fffffffff0000000000000000000000000000000000000000000000000000000082169050919050565b611d4581611d11565b82525050565b5f602082019050611d5e5f830184611d3c565b92915050565b5f81519050919050565b5f82825260208201905092915050565b5f819050602082019050919050565b611d9681611b74565b82525050565b611da581611bf1565b82525050565b5f8115159050919050565b611dbf81611dab565b82525050565b60e082015f820151611dd95f850182611d8d565b506020820151611dec6020850182611d9c565b506040820151611dff6040850182611d9c565b506060820151611e126060850182611d9c565b506080820151611e256080850182611d8d565b5060a0820151611e3860a0850182611d8d565b5060c0820151611e4b60c0850182611db6565b50505050565b5f611e5c8383611dc5565b60e08301905092915050565b5f602082019050919050565b5f611e7e82611d64565b611e888185611d6e565b9350611e9383611d7e565b805f5b83811015611ec3578151611eaa8882611e51565b9750611eb583611e68565b925050600181019050611e96565b5085935050505092915050565b5f6020820190508181035f830152611ee88184611e74565b905092915050565b5f5f5f60608486031215611f0757611f06611b6c565b5b5f611f1486828701611c18565b9350506020611f2586828701611b93565b9250506040611f3686828701611b93565b9150509250925092565b611f4981611b74565b82525050565b5f602082019050611f625f830184611f40565b92915050565b5f60208284031215611f7d57611f7c611b6c565b5b5f611f8a84828501611c18565b91505092915050565b5f81519050919050565b5f82825260208201905092915050565b5f819050602082019050919050565b5f611fc78383611d8d565b60208301905092915050565b5f602082019050919050565b5f611fe982611f93565b611ff38185611f9d565b9350611ffe83611fad565b805f5b8381101561202e5781516120158882611fbc565b975061202083611fd3565b925050600181019050612001565b5085935050505092915050565b5f81519050919050565b5f82825260208201905092915050565b5f819050602082019050919050565b5f61206f8383611d9c565b60208301905092915050565b5f602082019050919050565b5f6120918261203b565b61209b8185612045565b93506120a683612055565b805f5b838110156120d65781516120bd8882612064565b97506120c88361207b565b9250506001810190506120a9565b5085935050505092915050565b5f81519050919050565b5f82825260208201905092915050565b5f819050602082019050919050565b5f6121178383611db6565b60208301905092915050565b5f602082019050919050565b5f612139826120e3565b61214381856120ed565b935061214e836120fd565b805f5b8381101561217e578151612165888261210c565b975061217083612123565b925050600181019050612151565b5085935050505092915050565b5f60a0820190508181035f8301526121a38188611fdf565b905081810360208301526121b78187612087565b905081810360408301526121cb8186611fdf565b905081810360608301526121df8185611fdf565b905081810360808301526121f3818461212f565b90509695505050505050565b5f5f6040838503121561221557612214611b6c565b5b5f61222285828601611b93565b925050602061223385828601611c18565b9150509250929050565b5f5f6040838503121561225357612252611b6c565b5b5f61226085828601611b93565b925050602061227185828601611b93565b9150509250929050565b60e082015f82015161228f5f850182611d8d565b5060208201516122a26020850182611d9c565b5060408201516122b56040850182611d9c565b5060608201516122c86060850182611d9c565b5060808201516122db6080850182611d8d565b5060a08201516122ee60a0850182611d8d565b5060c082015161230160c0850182611db6565b50505050565b5f60e08201905061231a5f83018461227b565b92915050565b61232981611dab565b8114612333575f5ffd5b50565b5f8135905061234481612320565b92915050565b5f5f604083850312156123605761235f611b6c565b5b5f61236d85828601611b93565b925050602061237e85828601612336565b9150509250929050565b5f82825260208201905092915050565b7f4173736574206973206e6f7420666f722073616c6500000000000000000000005f82015250565b5f6123cc601583612388565b91506123d782612398565b602082019050919050565b5f6020820190508181035f8301526123f9816123c0565b9050919050565b7f496e73756666696369656e742066756e64732073656e740000000000000000005f82015250565b5f612434601783612388565b915061243f82612400565b602082019050919050565b5f6020820190508181035f83015261246181612428565b9050919050565b7f4e487b71000000000000000000000000000000000000000000000000000000005f52601160045260245ffd5b5f61249f82611b74565b91506124aa83611b74565b92508282026124b881611b74565b915082820484148315176124cf576124ce612468565b5b5092915050565b7f4e487b71000000000000000000000000000000000000000000000000000000005f52601260045260245ffd5b5f61250d82611b74565b915061251883611b74565b925082612528576125276124d6565b5b828204905092915050565b5f61253d82611b74565b915061254883611b74565b92508282039050818111156125605761255f612468565b5b92915050565b61256f81611bf1565b82525050565b5f6060820190506125885f830186612566565b6125956020830185612566565b6125a26040830184611f40565b949350505050565b5f6060820190506125bd5f830186611f40565b6125ca6020830185611f40565b6125d76040830184611f40565b949350505050565b7f4f6e6c79207468652066656520616464726573732063616e20736574207468655f8201527f2066656500000000000000000000000000000000000000000000000000000000602082015250565b5f612639602483612388565b9150612644826125df565b604082019050919050565b5f6020820190508181035f8301526126668161262d565b9050919050565b7f4665652063616e6e6f74206578636565642035302500000000000000000000005f82015250565b5f6126a1601583612388565b91506126ac8261266d565b602082019050919050565b5f6020820190508181035f8301526126ce81612695565b9050919050565b7f4665652063616e6e6f74206265207a65726f00000000000000000000000000005f82015250565b5f612709601283612388565b9150612714826126d5565b602082019050919050565b5f6020820190508181035f830152612736816126fd565b9050919050565b5f61274782611b74565b91507fffffffffffffffffffffffffffffffffffffffffffffffffffffffffffffffff820361277957612778612468565b5b600182019050919050565b7f4e487b71000000000000000000000000000000000000000000000000000000005f52604160045260245ffd5b7f4e487b71000000000000000000000000000000000000000000000000000000005f52603260045260245ffd5b7f5072696365206d757374206265206e6f6e2d6e656761746976650000000000005f82015250565b5f612812601a83612388565b915061281d826127de565b602082019050919050565b5f6020820190508181035f83015261283f81612806565b9050919050565b61284f81611dab565b82525050565b5f6080820190506128685f830187611f40565b6128756020830186611f40565b6128826040830185611f40565b61288f6060830184612846565b95945050505050565b5f6020820190506128ab5f830184612566565b92915050565b5f815190506128bf81611b7d565b92915050565b5f602082840312156128da576128d9611b6c565b5b5f6128e7848285016128b1565b91505092915050565b5f815190506128fe81611c02565b92915050565b5f6020828403121561291957612918611b6c565b5b5f612926848285016128f0565b91505092915050565b7f4f6e6c7920746865206f776e65722063616e2072656d6f7665207468652041735f8201527f7365740000000000000000000000000000000000000000000000000000000000602082015250565b5f612989602383612388565b91506129948261292f565b604082019050919050565b5f6020820190508181035f8301526129b68161297d565b9050919050565b7f546f6b656e2061646472657373206d69736d61746368000000000000000000005f82015250565b5f6129f1601683612388565b91506129fc826129bd565b602082019050919050565b5f6020820190508181035f830152612a1e816129e5565b9050919050565b7f4f6e6c7920746865206f776e65722063616e20757064617465207468652070725f8201527f6963650000000000000000000000000000000000000000000000000000000000602082015250565b5f612a7f602383612388565b9150612a8a82612a25565b604082019050919050565b5f6020820190508181035f830152612aac81612a73565b9050919050565b7f5072696365206d7573742062652067726561746572207468616e2030000000005f82015250565b5f612ae7601c83612388565b9150612af282612ab3565b602082019050919050565b5f6020820190508181035f830152612b1481612adb565b9050919050565b5f604082019050612b2e5f830185611f40565b612b3b6020830184611f40565b9392505050565b7f4f6e6c7920746865206f776e65722063616e20736574207468652041737365745f8201527f20666f722073616c650000000000000000000000000000000000000000000000602082015250565b5f612b9c602983612388565b9150612ba782612b42565b604082019050919050565b5f6020820190508181035f830152612bc981612b90565b9050919050565b5f604082019050612be35f830185611f40565b612bf06020830184612846565b9392505050565b5f81519050919050565b8281835e5f83830152505050565b5f601f19601f8301169050919050565b5f612c2982612bf7565b612c338185612388565b9350612c43818560208601612c01565b612c4c81612c0f565b840191505092915050565b5f6040820190508181035f830152612c6f8185612c1f565b9050612c7e6020830184611f40565b9392505050565b7f4e487b71000000000000000000000000000000000000000000000000000000005f52605160045260245ffdfea26469706673582212200b95956b537833cfc2586ad8021ccc916fb7dbf8ff0da8fe8e814f511514476e64736f6c634300081c0033",
  "linkReferences": {},
  "deployedLinkReferences": {},
  "immutableReferences": {},
  "inputSourceName": "project/contracts/MarketPlace.sol",
  "buildInfoId": "solc-0_8_28-99cb17303dac5202a86243dc06e5049ea3f9fafc"
}