{
  "_format": "hh-sol-artifact-1",
  "contractName": "Mescat",
  "sourceName": "contracts/Mescat.sol",
  "abi": [
    {
      "inputs": [
        {
          "internalType": "string",
          "name": "eid",
          "type": "string"
        }
      ],
      "name": "getSSSS",
      "outputs": [
        {
          "internalType": "string",
          "name": "",
          "type": "string"
        },
        {
          "internalType": "string",
          "name": "",
          "type": "string"
        },
        {
          "internalType": "bool",
          "name": "",
          "type": "bool"
        },
        {
          "internalType": "string",
          "name": "",
          "type": "string"
        }
      ],
      "stateMutability": "view",
      "type": "function"
    },
    {
      "inputs": [
        {
          "internalType": "string",
          "name": "eid",
          "type": "string"
        },
        {
          "internalType": "string",
          "name": "content",
          "type": "string"
        },
        {
          "internalType": "bool",
          "name": "hasCid",
          "type": "bool"
        },
        {
          "internalType": "string",
          "name": "cid",
          "type": "string"
        }
      ],
      "name": "setSSSS",
      "outputs": [],
      "stateMutability": "nonpayable",
      "type": "function"
    }
  ],
  "bytecode": "0x6080604052348015600f57600080fd5b50610a4d8061001f6000396000f3fe608060405234801561001057600080fd5b50600436106100365760003560e01c8063148f67331461003b578063eadc71c514610057575b600080fd5b610055600480360381019061005091906104f0565b61008a565b005b610071600480360381019061006c91906105ab565b610136565b6040516100819493929190610682565b60405180910390f35b60405180608001604052808581526020018481526020018315158152602001828152506000856040516100bd9190610718565b908152602001604051809103902060008201518160000190816100e09190610945565b5060208201518160010190816100f69190610945565b5060408201518160020160006101000a81548160ff021916908315150217905550606082015181600301908161012c9190610945565b5090505050505050565b606080600060606000808660405161014e9190610718565b90815260200160405180910390206040518060800160405290816000820180546101779061075e565b80601f01602080910402602001604051908101604052809291908181526020018280546101a39061075e565b80156101f05780601f106101c5576101008083540402835291602001916101f0565b820191906000526020600020905b8154815290600101906020018083116101d357829003601f168201915b505050505081526020016001820180546102099061075e565b80601f01602080910402602001604051908101604052809291908181526020018280546102359061075e565b80156102825780601f1061025757610100808354040283529160200191610282565b820191906000526020600020905b81548152906001019060200180831161026557829003601f168201915b505050505081526020016002820160009054906101000a900460ff161515151581526020016003820180546102b69061075e565b80601f01602080910402602001604051908101604052809291908181526020018280546102e29061075e565b801561032f5780601f106103045761010080835404028352916020019161032f565b820191906000526020600020905b81548152906001019060200180831161031257829003601f168201915b505050505081525050905080600001518160200151826040015183606001519450945094509450509193509193565b6000604051905090565b600080fd5b600080fd5b600080fd5b600080fd5b6000601f19601f8301169050919050565b7f4e487b7100000000000000000000000000000000000000000000000000000000600052604160045260246000fd5b6103c58261037c565b810181811067ffffffffffffffff821117156103e4576103e361038d565b5b80604052505050565b60006103f761035e565b905061040382826103bc565b919050565b600067ffffffffffffffff8211156104235761042261038d565b5b61042c8261037c565b9050602081019050919050565b82818337600083830152505050565b600061045b61045684610408565b6103ed565b90508281526020810184848401111561047757610476610377565b5b610482848285610439565b509392505050565b600082601f83011261049f5761049e610372565b5b81356104af848260208601610448565b91505092915050565b60008115159050919050565b6104cd816104b8565b81146104d857600080fd5b50565b6000813590506104ea816104c4565b92915050565b6000806000806080858703121561050a57610509610368565b5b600085013567ffffffffffffffff8111156105285761052761036d565b5b6105348782880161048a565b945050602085013567ffffffffffffffff8111156105555761055461036d565b5b6105618782880161048a565b9350506040610572878288016104db565b925050606085013567ffffffffffffffff8111156105935761059261036d565b5b61059f8782880161048a565b91505092959194509250565b6000602082840312156105c1576105c0610368565b5b600082013567ffffffffffffffff8111156105df576105de61036d565b5b6105eb8482850161048a565b91505092915050565b600081519050919050565b600082825260208201905092915050565b60005b8381101561062e578082015181840152602081019050610613565b60008484015250505050565b6000610645826105f4565b61064f81856105ff565b935061065f818560208601610610565b6106688161037c565b840191505092915050565b61067c816104b8565b82525050565b6000608082019050818103600083015261069c818761063a565b905081810360208301526106b0818661063a565b90506106bf6040830185610673565b81810360608301526106d1818461063a565b905095945050505050565b600081905092915050565b60006106f2826105f4565b6106fc81856106dc565b935061070c818560208601610610565b80840191505092915050565b600061072482846106e7565b915081905092915050565b7f4e487b7100000000000000000000000000000000000000000000000000000000600052602260045260246000fd5b6000600282049050600182168061077657607f821691505b6020821081036107895761078861072f565b5b50919050565b60008190508160005260206000209050919050565b60006020601f8301049050919050565b600082821b905092915050565b6000600883026107f17fffffffffffffffffffffffffffffffffffffffffffffffffffffffffffffffff826107b4565b6107fb86836107b4565b95508019841693508086168417925050509392505050565b6000819050919050565b6000819050919050565b600061084261083d61083884610813565b61081d565b610813565b9050919050565b6000819050919050565b61085c83610827565b61087061086882610849565b8484546107c1565b825550505050565b600090565b610885610878565b610890818484610853565b505050565b5b818110156108b4576108a960008261087d565b600181019050610896565b5050565b601f8211156108f9576108ca8161078f565b6108d3846107a4565b810160208510156108e2578190505b6108f66108ee856107a4565b830182610895565b50505b505050565b600082821c905092915050565b600061091c600019846008026108fe565b1980831691505092915050565b6000610935838361090b565b9150826002028217905092915050565b61094e826105f4565b67ffffffffffffffff8111156109675761096661038d565b5b610971825461075e565b61097c8282856108b8565b600060209050601f8311600181146109af576000841561099d578287015190505b6109a78582610929565b865550610a0f565b601f1984166109bd8661078f565b60005b828110156109e5578489015182556001820191506020850194506020810190506109c0565b86831015610a0257848901516109fe601f89168261090b565b8355505b6001600288020188555050505b50505050505056fea2646970667358221220cddcfc03e13d4ea30ec4ec48c4f9037f54ec80c412bfb2ba8be280925685bc6b64736f6c634300081c0033",
  "linkReferences": {},
  "deployedLinkReferences": {}
}