{
  "_format": "hh-sol-artifact-1",
  "contractName": "Mescat",
  "sourceName": "contracts/Mescat.sol",
  "abi": [
    {
      "inputs": [
        {
          "internalType": "string",
          "name": "eid",
          "type": "string"
        }
      ],
      "name": "getSSSS",
      "outputs": [
        {
          "internalType": "string",
          "name": "eventId",
          "type": "string"
        },
        {
          "internalType": "string",
          "name": "content",
          "type": "string"
        },
        {
          "internalType": "bool",
          "name": "hasCid",
          "type": "bool"
        },
        {
          "internalType": "string",
          "name": "cid",
          "type": "string"
        }
      ],
      "stateMutability": "view",
      "type": "function"
    },
    {
      "inputs": [
        {
          "internalType": "string",
          "name": "eid",
          "type": "string"
        },
        {
          "internalType": "string",
          "name": "content",
          "type": "string"
        },
        {
          "internalType": "bool",
          "name": "hasCid",
          "type": "bool"
        },
        {
          "internalType": "string",
          "name": "cid",
          "type": "string"
        }
      ],
      "name": "setSSSS",
      "outputs": [],
      "stateMutability": "nonpayable",
      "type": "function"
    }
  ],
  "bytecode": "0x608060405260008055348015601357600080fd5b50610c88806100236000396000f3fe608060405234801561001057600080fd5b50600436106100365760003560e01c8063148f67331461003b578063eadc71c514610057575b600080fd5b6100556004803603810190610050919061065a565b61008a565b005b610071600480360381019061006c9190610715565b61014f565b60405161008194939291906107ec565b60405180910390f35b60405180608001604052808581526020018481526020018315158152602001828152506001856040516100bd9190610882565b908152602001604051809103902060008201518160000190816100e09190610aaf565b5060208201518160010190816100f69190610aaf565b5060408201518160020160006101000a81548160ff021916908315150217905550606082015181600301908161012c9190610aaf565b5090505060016000808282546101429190610bb0565b9250508190555050505050565b606080600060606101976040518060400160405280600b81526020017f5265636f72642073697a650000000000000000000000000000000000000000008152506000546103dc565b6001856040516101a79190610882565b90815260200160405180910390206000016001866040516101c89190610882565b90815260200160405180910390206001016001876040516101e99190610882565b908152602001604051809103902060020160009054906101000a900460ff166001886040516102189190610882565b9081526020016040518091039020600301838054610235906108c8565b80601f0160208091040260200160405190810160405280929190818152602001828054610261906108c8565b80156102ae5780601f10610283576101008083540402835291602001916102ae565b820191906000526020600020905b81548152906001019060200180831161029157829003601f168201915b505050505093508280546102c1906108c8565b80601f01602080910402602001604051908101604052809291908181526020018280546102ed906108c8565b801561033a5780601f1061030f5761010080835404028352916020019161033a565b820191906000526020600020905b81548152906001019060200180831161031d57829003601f168201915b5050505050925080805461034d906108c8565b80601f0160208091040260200160405190810160405280929190818152602001828054610379906108c8565b80156103c65780601f1061039b576101008083540402835291602001916103c6565b820191906000526020600020905b8154815290600101906020018083116103a957829003601f168201915b5050505050905093509350935093509193509193565b61047482826040516024016103f2929190610bf3565b6040516020818303038152906040527fb60e72cc000000000000000000000000000000000000000000000000000000007bffffffffffffffffffffffffffffffffffffffffffffffffffffffff19166020820180517bffffffffffffffffffffffffffffffffffffffffffffffffffffffff8381831617835250505050610478565b5050565b61048f816104876104926104b3565b63ffffffff16565b50565b60006a636f6e736f6c652e6c6f679050600080835160208501845afa505050565b6104be819050919050565b6104c6610c23565b565b6000604051905090565b600080fd5b600080fd5b600080fd5b600080fd5b6000601f19601f8301169050919050565b7f4e487b7100000000000000000000000000000000000000000000000000000000600052604160045260246000fd5b61052f826104e6565b810181811067ffffffffffffffff8211171561054e5761054d6104f7565b5b80604052505050565b60006105616104c8565b905061056d8282610526565b919050565b600067ffffffffffffffff82111561058d5761058c6104f7565b5b610596826104e6565b9050602081019050919050565b82818337600083830152505050565b60006105c56105c084610572565b610557565b9050828152602081018484840111156105e1576105e06104e1565b5b6105ec8482856105a3565b509392505050565b600082601f830112610609576106086104dc565b5b81356106198482602086016105b2565b91505092915050565b60008115159050919050565b61063781610622565b811461064257600080fd5b50565b6000813590506106548161062e565b92915050565b60008060008060808587031215610674576106736104d2565b5b600085013567ffffffffffffffff811115610692576106916104d7565b5b61069e878288016105f4565b945050602085013567ffffffffffffffff8111156106bf576106be6104d7565b5b6106cb878288016105f4565b93505060406106dc87828801610645565b925050606085013567ffffffffffffffff8111156106fd576106fc6104d7565b5b610709878288016105f4565b91505092959194509250565b60006020828403121561072b5761072a6104d2565b5b600082013567ffffffffffffffff811115610749576107486104d7565b5b610755848285016105f4565b91505092915050565b600081519050919050565b600082825260208201905092915050565b60005b8381101561079857808201518184015260208101905061077d565b60008484015250505050565b60006107af8261075e565b6107b98185610769565b93506107c981856020860161077a565b6107d2816104e6565b840191505092915050565b6107e681610622565b82525050565b6000608082019050818103600083015261080681876107a4565b9050818103602083015261081a81866107a4565b905061082960408301856107dd565b818103606083015261083b81846107a4565b905095945050505050565b600081905092915050565b600061085c8261075e565b6108668185610846565b935061087681856020860161077a565b80840191505092915050565b600061088e8284610851565b915081905092915050565b7f4e487b7100000000000000000000000000000000000000000000000000000000600052602260045260246000fd5b600060028204905060018216806108e057607f821691505b6020821081036108f3576108f2610899565b5b50919050565b60008190508160005260206000209050919050565b60006020601f8301049050919050565b600082821b905092915050565b60006008830261095b7fffffffffffffffffffffffffffffffffffffffffffffffffffffffffffffffff8261091e565b610965868361091e565b95508019841693508086168417925050509392505050565b6000819050919050565b6000819050919050565b60006109ac6109a76109a28461097d565b610987565b61097d565b9050919050565b6000819050919050565b6109c683610991565b6109da6109d2826109b3565b84845461092b565b825550505050565b600090565b6109ef6109e2565b6109fa8184846109bd565b505050565b5b81811015610a1e57610a136000826109e7565b600181019050610a00565b5050565b601f821115610a6357610a34816108f9565b610a3d8461090e565b81016020851015610a4c578190505b610a60610a588561090e565b8301826109ff565b50505b505050565b600082821c905092915050565b6000610a8660001984600802610a68565b1980831691505092915050565b6000610a9f8383610a75565b9150826002028217905092915050565b610ab88261075e565b67ffffffffffffffff811115610ad157610ad06104f7565b5b610adb82546108c8565b610ae6828285610a22565b600060209050601f831160018114610b195760008415610b07578287015190505b610b118582610a93565b865550610b79565b601f198416610b27866108f9565b60005b82811015610b4f57848901518255600182019150602085019450602081019050610b2a565b86831015610b6c5784890151610b68601f891682610a75565b8355505b6001600288020188555050505b505050505050565b7f4e487b7100000000000000000000000000000000000000000000000000000000600052601160045260246000fd5b6000610bbb8261097d565b9150610bc68361097d565b9250828201905080821115610bde57610bdd610b81565b5b92915050565b610bed8161097d565b82525050565b60006040820190508181036000830152610c0d81856107a4565b9050610c1c6020830184610be4565b9392505050565b7f4e487b7100000000000000000000000000000000000000000000000000000000600052605160045260246000fdfea264697066735822122015cba8e61d1a4abbd466e7e14e521bcd6009511e646df0583ebc39a478d2f2c964736f6c634300081c0033",
  "linkReferences": {},
  "deployedLinkReferences": {}
}