{
  "_format": "hh3-artifact-1",
  "contractName": "MusiCat",
  "sourceName": "contracts/MusiCat.sol",
  "abi": [
    {
      "inputs": [],
      "stateMutability": "nonpayable",
      "type": "constructor"
    },
    {
      "inputs": [
        {
          "internalType": "address",
          "name": "sender",
          "type": "address"
        },
        {
          "internalType": "uint256",
          "name": "tokenId",
          "type": "uint256"
        },
        {
          "internalType": "address",
          "name": "owner",
          "type": "address"
        }
      ],
      "name": "ERC721IncorrectOwner",
      "type": "error"
    },
    {
      "inputs": [
        {
          "internalType": "address",
          "name": "operator",
          "type": "address"
        },
        {
          "internalType": "uint256",
          "name": "tokenId",
          "type": "uint256"
        }
      ],
      "name": "ERC721InsufficientApproval",
      "type": "error"
    },
    {
      "inputs": [
        {
          "internalType": "address",
          "name": "approver",
          "type": "address"
        }
      ],
      "name": "ERC721InvalidApprover",
      "type": "error"
    },
    {
      "inputs": [
        {
          "internalType": "address",
          "name": "operator",
          "type": "address"
        }
      ],
      "name": "ERC721InvalidOperator",
      "type": "error"
    },
    {
      "inputs": [
        {
          "internalType": "address",
          "name": "owner",
          "type": "address"
        }
      ],
      "name": "ERC721InvalidOwner",
      "type": "error"
    },
    {
      "inputs": [
        {
          "internalType": "address",
          "name": "receiver",
          "type": "address"
        }
      ],
      "name": "ERC721InvalidReceiver",
      "type": "error"
    },
    {
      "inputs": [
        {
          "internalType": "address",
          "name": "sender",
          "type": "address"
        }
      ],
      "name": "ERC721InvalidSender",
      "type": "error"
    },
    {
      "inputs": [
        {
          "internalType": "uint256",
          "name": "tokenId",
          "type": "uint256"
        }
      ],
      "name": "ERC721NonexistentToken",
      "type": "error"
    },
    {
      "anonymous": false,
      "inputs": [
        {
          "indexed": true,
          "internalType": "address",
          "name": "owner",
          "type": "address"
        },
        {
          "indexed": true,
          "internalType": "address",
          "name": "approved",
          "type": "address"
        },
        {
          "indexed": true,
          "internalType": "uint256",
          "name": "tokenId",
          "type": "uint256"
        }
      ],
      "name": "Approval",
      "type": "event"
    },
    {
      "anonymous": false,
      "inputs": [
        {
          "indexed": true,
          "internalType": "address",
          "name": "owner",
          "type": "address"
        },
        {
          "indexed": true,
          "internalType": "address",
          "name": "operator",
          "type": "address"
        },
        {
          "indexed": false,
          "internalType": "bool",
          "name": "approved",
          "type": "bool"
        }
      ],
      "name": "ApprovalForAll",
      "type": "event"
    },
    {
      "anonymous": false,
      "inputs": [
        {
          "indexed": false,
          "internalType": "uint256",
          "name": "tokenId",
          "type": "uint256"
        },
        {
          "indexed": false,
          "internalType": "string",
          "name": "tokenURI",
          "type": "string"
        },
        {
          "indexed": false,
          "internalType": "address",
          "name": "marketPlaceAddress",
          "type": "address"
        }
      ],
      "name": "AssetMinted",
      "type": "event"
    },
    {
      "anonymous": false,
      "inputs": [
        {
          "indexed": false,
          "internalType": "uint256",
          "name": "_fromTokenId",
          "type": "uint256"
        },
        {
          "indexed": false,
          "internalType": "uint256",
          "name": "_toTokenId",
          "type": "uint256"
        }
      ],
      "name": "BatchMetadataUpdate",
      "type": "event"
    },
    {
      "anonymous": false,
      "inputs": [
        {
          "indexed": false,
          "internalType": "uint256",
          "name": "_tokenId",
          "type": "uint256"
        }
      ],
      "name": "MetadataUpdate",
      "type": "event"
    },
    {
      "anonymous": false,
      "inputs": [
        {
          "indexed": true,
          "internalType": "address",
          "name": "from",
          "type": "address"
        },
        {
          "indexed": true,
          "internalType": "address",
          "name": "to",
          "type": "address"
        },
        {
          "indexed": true,
          "internalType": "uint256",
          "name": "tokenId",
          "type": "uint256"
        }
      ],
      "name": "Transfer",
      "type": "event"
    },
    {
      "inputs": [
        {
          "internalType": "address",
          "name": "to",
          "type": "address"
        },
        {
          "internalType": "uint256",
          "name": "tokenId",
          "type": "uint256"
        }
      ],
      "name": "approve",
      "outputs": [],
      "stateMutability": "nonpayable",
      "type": "function"
    },
    {
      "inputs": [
        {
          "internalType": "address",
          "name": "owner",
          "type": "address"
        }
      ],
      "name": "balanceOf",
      "outputs": [
        {
          "internalType": "uint256",
          "name": "",
          "type": "uint256"
        }
      ],
      "stateMutability": "view",
      "type": "function"
    },
    {
      "inputs": [
        {
          "internalType": "uint256",
          "name": "tokenId",
          "type": "uint256"
        }
      ],
      "name": "burnAsset",
      "outputs": [],
      "stateMutability": "nonpayable",
      "type": "function"
    },
    {
      "inputs": [],
      "name": "count",
      "outputs": [
        {
          "internalType": "uint256",
          "name": "",
          "type": "uint256"
        }
      ],
      "stateMutability": "view",
      "type": "function"
    },
    {
      "inputs": [
        {
          "internalType": "uint256",
          "name": "tokenId",
          "type": "uint256"
        }
      ],
      "name": "creatorOf",
      "outputs": [
        {
          "internalType": "address",
          "name": "",
          "type": "address"
        }
      ],
      "stateMutability": "view",
      "type": "function"
    },
    {
      "inputs": [
        {
          "internalType": "uint256",
          "name": "tokenId",
          "type": "uint256"
        }
      ],
      "name": "getApproved",
      "outputs": [
        {
          "internalType": "address",
          "name": "",
          "type": "address"
        }
      ],
      "stateMutability": "view",
      "type": "function"
    },
    {
      "inputs": [
        {
          "internalType": "address",
          "name": "sender",
          "type": "address"
        }
      ],
      "name": "getAssetOwnedBySender",
      "outputs": [
        {
          "internalType": "uint256[]",
          "name": "",
          "type": "uint256[]"
        }
      ],
      "stateMutability": "view",
      "type": "function"
    },
    {
      "inputs": [
        {
          "internalType": "address",
          "name": "sender",
          "type": "address"
        }
      ],
      "name": "getTokenCreatedBySender",
      "outputs": [
        {
          "internalType": "uint256[]",
          "name": "",
          "type": "uint256[]"
        }
      ],
      "stateMutability": "view",
      "type": "function"
    },
    {
      "inputs": [
        {
          "internalType": "address",
          "name": "owner",
          "type": "address"
        },
        {
          "internalType": "address",
          "name": "operator",
          "type": "address"
        }
      ],
      "name": "isApprovedForAll",
      "outputs": [
        {
          "internalType": "bool",
          "name": "",
          "type": "bool"
        }
      ],
      "stateMutability": "view",
      "type": "function"
    },
    {
      "inputs": [
        {
          "internalType": "string",
          "name": "uri",
          "type": "string"
        },
        {
          "internalType": "address",
          "name": "marketPlaceAddress",
          "type": "address"
        }
      ],
      "name": "mintAsset",
      "outputs": [
        {
          "internalType": "uint256",
          "name": "",
          "type": "uint256"
        }
      ],
      "stateMutability": "nonpayable",
      "type": "function"
    },
    {
      "inputs": [],
      "name": "name",
      "outputs": [
        {
          "internalType": "string",
          "name": "",
          "type": "string"
        }
      ],
      "stateMutability": "view",
      "type": "function"
    },
    {
      "inputs": [
        {
          "internalType": "uint256",
          "name": "tokenId",
          "type": "uint256"
        }
      ],
      "name": "ownerOf",
      "outputs": [
        {
          "internalType": "address",
          "name": "",
          "type": "address"
        }
      ],
      "stateMutability": "view",
      "type": "function"
    },
    {
      "inputs": [
        {
          "internalType": "address",
          "name": "from",
          "type": "address"
        },
        {
          "internalType": "address",
          "name": "to",
          "type": "address"
        },
        {
          "internalType": "uint256",
          "name": "tokenId",
          "type": "uint256"
        }
      ],
      "name": "safeTransferFrom",
      "outputs": [],
      "stateMutability": "nonpayable",
      "type": "function"
    },
    {
      "inputs": [
        {
          "internalType": "address",
          "name": "from",
          "type": "address"
        },
        {
          "internalType": "address",
          "name": "to",
          "type": "address"
        },
        {
          "internalType": "uint256",
          "name": "tokenId",
          "type": "uint256"
        },
        {
          "internalType": "bytes",
          "name": "data",
          "type": "bytes"
        }
      ],
      "name": "safeTransferFrom",
      "outputs": [],
      "stateMutability": "nonpayable",
      "type": "function"
    },
    {
      "inputs": [
        {
          "internalType": "address",
          "name": "operator",
          "type": "address"
        },
        {
          "internalType": "bool",
          "name": "approved",
          "type": "bool"
        }
      ],
      "name": "setApprovalForAll",
      "outputs": [],
      "stateMutability": "nonpayable",
      "type": "function"
    },
    {
      "inputs": [
        {
          "internalType": "bytes4",
          "name": "interfaceId",
          "type": "bytes4"
        }
      ],
      "name": "supportsInterface",
      "outputs": [
        {
          "internalType": "bool",
          "name": "",
          "type": "bool"
        }
      ],
      "stateMutability": "view",
      "type": "function"
    },
    {
      "inputs": [],
      "name": "symbol",
      "outputs": [
        {
          "internalType": "string",
          "name": "",
          "type": "string"
        }
      ],
      "stateMutability": "view",
      "type": "function"
    },
    {
      "inputs": [
        {
          "internalType": "uint256",
          "name": "tokenId",
          "type": "uint256"
        }
      ],
      "name": "tokenURI",
      "outputs": [
        {
          "internalType": "string",
          "name": "",
          "type": "string"
        }
      ],
      "stateMutability": "view",
      "type": "function"
    },
    {
      "inputs": [
        {
          "internalType": "address",
          "name": "from",
          "type": "address"
        },
        {
          "internalType": "address",
          "name": "to",
          "type": "address"
        },
        {
          "internalType": "uint256",
          "name": "tokenId",
          "type": "uint256"
        }
      ],
      "name": "transferFrom",
      "outputs": [],
      "stateMutability": "nonpayable",
      "type": "function"
    }
  ],
  "bytecode": "0x608060405234801561000f575f5ffd5b506040518060400160405280600781526020017f4d757369436174000000000000000000000000000000000000000000000000008152506040518060400160405280600381526020017f4d53430000000000000000000000000000000000000000000000000000000000815250815f908161008a91906102df565b50806001908161009a91906102df565b5050506103ae565b5f81519050919050565b7f4e487b71000000000000000000000000000000000000000000000000000000005f52604160045260245ffd5b7f4e487b71000000000000000000000000000000000000000000000000000000005f52602260045260245ffd5b5f600282049050600182168061011d57607f821691505b6020821081036101305761012f6100d9565b5b50919050565b5f819050815f5260205f209050919050565b5f6020601f8301049050919050565b5f82821b905092915050565b5f600883026101927fffffffffffffffffffffffffffffffffffffffffffffffffffffffffffffffff82610157565b61019c8683610157565b95508019841693508086168417925050509392505050565b5f819050919050565b5f819050919050565b5f6101e06101db6101d6846101b4565b6101bd565b6101b4565b9050919050565b5f819050919050565b6101f9836101c6565b61020d610205826101e7565b848454610163565b825550505050565b5f5f905090565b610224610215565b61022f8184846101f0565b505050565b5b81811015610252576102475f8261021c565b600181019050610235565b5050565b601f8211156102975761026881610136565b61027184610148565b81016020851015610280578190505b61029461028c85610148565b830182610234565b50505b505050565b5f82821c905092915050565b5f6102b75f198460080261029c565b1980831691505092915050565b5f6102cf83836102a8565b9150826002028217905092915050565b6102e8826100a2565b67ffffffffffffffff811115610301576103006100ac565b5b61030b8254610106565b610316828285610256565b5f60209050601f831160018114610347575f8415610335578287015190505b61033f85826102c4565b8655506103a6565b601f19841661035586610136565b5f5b8281101561037c57848901518255600182019150602085019450602081019050610357565b868310156103995784890151610395601f8916826102a8565b8355505b6001600288020188555050505b505050505050565b612af1806103bb5f395ff3fe608060405234801561000f575f5ffd5b506004361061011f575f3560e01c8063589a1743116100ab57806395d89b411161006f57806395d89b411461034f578063a22cb4651461036d578063b88d4fde14610389578063c87b56dd146103a5578063e985e9c5146103d55761011f565b8063589a1743146102735780636352211e146102a35780636b865d15146102d357806370a08231146103035780638f08d44d146103335761011f565b8063095ea7b3116100f2578063095ea7b3146101bf57806323b872dd146101db5780632e8abfe0146101f757806342842e0e1461022757806357c2119d146102435761011f565b806301ffc9a71461012357806306661abd1461015357806306fdde0314610171578063081812fc1461018f575b5f5ffd5b61013d60048036038101906101389190611e19565b610405565b60405161014a9190611e5e565b60405180910390f35b61015b610416565b6040516101689190611e8f565b60405180910390f35b61017961041f565b6040516101869190611f18565b60405180910390f35b6101a960048036038101906101a49190611f62565b6104ae565b6040516101b69190611fcc565b60405180910390f35b6101d960048036038101906101d4919061200f565b6104c9565b005b6101f560048036038101906101f0919061204d565b6104df565b005b610211600480360381019061020c919061209d565b6105de565b60405161021e919061217f565b60405180910390f35b610241600480360381019061023c919061204d565b61072d565b005b61025d6004803603810190610258919061209d565b61074c565b60405161026a919061217f565b60405180910390f35b61028d60048036038101906102889190611f62565b6108e9565b60405161029a9190611fcc565b60405180910390f35b6102bd60048036038101906102b89190611f62565b61096a565b6040516102ca9190611fcc565b60405180910390f35b6102ed60048036038101906102e891906122cb565b61097b565b6040516102fa9190611e8f565b60405180910390f35b61031d6004803603810190610318919061209d565b610a48565b60405161032a9190611e8f565b60405180910390f35b61034d60048036038101906103489190611f62565b610afe565b005b610357610b3d565b6040516103649190611f18565b60405180910390f35b6103876004803603810190610382919061234f565b610bcd565b005b6103a3600480360381019061039e919061242b565b610be3565b005b6103bf60048036038101906103ba9190611f62565b610c08565b6040516103cc9190611f18565b60405180910390f35b6103ef60048036038101906103ea91906124ab565b610d13565b6040516103fc9190611e5e565b60405180910390f35b5f61040f82610da1565b9050919050565b5f600754905090565b60605f805461042d90612516565b80601f016020809104026020016040519081016040528092919081815260200182805461045990612516565b80156104a45780601f1061047b576101008083540402835291602001916104a4565b820191905f5260205f20905b81548152906001019060200180831161048757829003601f168201915b5050505050905090565b5f6104b882610e01565b506104c282610e87565b9050919050565b6104db82826104d6610ec0565b610ec7565b5050565b5f73ffffffffffffffffffffffffffffffffffffffff168273ffffffffffffffffffffffffffffffffffffffff160361054f575f6040517f64a0ae920000000000000000000000000000000000000000000000000000000081526004016105469190611fcc565b60405180910390fd5b5f610562838361055d610ec0565b610ed9565b90508373ffffffffffffffffffffffffffffffffffffffff168173ffffffffffffffffffffffffffffffffffffffff16146105d8578382826040517f64283d7b0000000000000000000000000000000000000000000000000000000081526004016105cf93929190612546565b60405180910390fd5b50505050565b60605f6105ea83610a48565b90505f8111610644575f67ffffffffffffffff81111561060d5761060c6121a7565b5b60405190808252806020026020018201604052801561063b5781602001602082028036833780820191505090505b50915050610728565b5f8167ffffffffffffffff81111561065f5761065e6121a7565b5b60405190808252806020026020018201604052801561068d5781602001602082028036833780820191505090505b5090505f5f90505f5f90505b6007548110156107205783821015610720578573ffffffffffffffffffffffffffffffffffffffff166106cb8261096a565b73ffffffffffffffffffffffffffffffffffffffff160361071357808383806106f3906125a8565b945081518110610706576107056125ef565b5b6020026020010181815250505b8080600101915050610699565b508193505050505b919050565b61074783838360405180602001604052805f815250610be3565b505050565b60605f5f90505f5f90505b6007548110156107e0578373ffffffffffffffffffffffffffffffffffffffff1660085f8381526020019081526020015f205f9054906101000a900473ffffffffffffffffffffffffffffffffffffffff1673ffffffffffffffffffffffffffffffffffffffff16036107d35781806107cf906125a8565b9250505b8080600101915050610757565b505f8167ffffffffffffffff8111156107fc576107fb6121a7565b5b60405190808252806020026020018201604052801561082a5781602001602082028036833780820191505090505b5090505f5f90505f5f90505b6007548110156108dd578573ffffffffffffffffffffffffffffffffffffffff1660085f8381526020019081526020015f205f9054906101000a900473ffffffffffffffffffffffffffffffffffffffff1673ffffffffffffffffffffffffffffffffffffffff16036108d057808383806108b0906125a8565b9450815181106108c3576108c26125ef565b5b6020026020010181815250505b8080600101915050610836565b50819350505050919050565b5f6108f3826110e4565b610932576040517f08c379a000000000000000000000000000000000000000000000000000000000815260040161092990612666565b60405180910390fd5b60085f8381526020019081526020015f205f9054906101000a900473ffffffffffffffffffffffffffffffffffffffff169050919050565b5f61097482610e01565b9050919050565b5f5f60075f81548092919061098f906125a8565b91905055905061099f338261114c565b3360085f8381526020019081526020015f205f6101000a81548173ffffffffffffffffffffffffffffffffffffffff021916908373ffffffffffffffffffffffffffffffffffffffff1602179055506109f8818561123f565b610a03836001610bcd565b7fd795f81e396978efe4b953561251f092354cd8282d26b4c9ebe648f61b2a71cd818585604051610a3693929190612684565b60405180910390a18091505092915050565b5f5f73ffffffffffffffffffffffffffffffffffffffff168273ffffffffffffffffffffffffffffffffffffffff1603610ab9575f6040517f89c62b64000000000000000000000000000000000000000000000000000000008152600401610ab09190611fcc565b60405180910390fd5b60035f8373ffffffffffffffffffffffffffffffffffffffff1673ffffffffffffffffffffffffffffffffffffffff1681526020019081526020015f20549050919050565b60085f8281526020019081526020015f205f6101000a81549073ffffffffffffffffffffffffffffffffffffffff0219169055610b3a81611299565b50565b606060018054610b4c90612516565b80601f0160208091040260200160405190810160405280929190818152602001828054610b7890612516565b8015610bc35780601f10610b9a57610100808354040283529160200191610bc3565b820191905f5260205f20905b815481529060010190602001808311610ba657829003601f168201915b5050505050905090565b610bdf610bd8610ec0565b838361131b565b5050565b610bee8484846104df565b610c02610bf9610ec0565b85858585611484565b50505050565b6060610c1382610e01565b505f60065f8481526020019081526020015f208054610c3190612516565b80601f0160208091040260200160405190810160405280929190818152602001828054610c5d90612516565b8015610ca85780601f10610c7f57610100808354040283529160200191610ca8565b820191905f5260205f20905b815481529060010190602001808311610c8b57829003601f168201915b505050505090505f610cb8611630565b90505f815103610ccc578192505050610d0e565b5f82511115610d00578082604051602001610ce89291906126fa565b60405160208183030381529060405292505050610d0e565b610d098461166d565b925050505b919050565b5f60055f8473ffffffffffffffffffffffffffffffffffffffff1673ffffffffffffffffffffffffffffffffffffffff1681526020019081526020015f205f8373ffffffffffffffffffffffffffffffffffffffff1673ffffffffffffffffffffffffffffffffffffffff1681526020019081526020015f205f9054906101000a900460ff16905092915050565b5f634906490660e01b7bffffffffffffffffffffffffffffffffffffffffffffffffffffffff1916827bffffffffffffffffffffffffffffffffffffffffffffffffffffffff19161480610dfa5750610df9826116d3565b5b9050919050565b5f5f610e0c836117b4565b90505f73ffffffffffffffffffffffffffffffffffffffff168173ffffffffffffffffffffffffffffffffffffffff1603610e7e57826040517f7e273289000000000000000000000000000000000000000000000000000000008152600401610e759190611e8f565b60405180910390fd5b80915050919050565b5f60045f8381526020019081526020015f205f9054906101000a900473ffffffffffffffffffffffffffffffffffffffff169050919050565b5f33905090565b610ed483838360016117ed565b505050565b5f5f610ee4846117b4565b90505f73ffffffffffffffffffffffffffffffffffffffff168373ffffffffffffffffffffffffffffffffffffffff1614610f2557610f248184866119ac565b5b5f73ffffffffffffffffffffffffffffffffffffffff168173ffffffffffffffffffffffffffffffffffffffff1614610fb057610f645f855f5f6117ed565b600160035f8373ffffffffffffffffffffffffffffffffffffffff1673ffffffffffffffffffffffffffffffffffffffff1681526020019081526020015f205f82825403925050819055505b5f73ffffffffffffffffffffffffffffffffffffffff168573ffffffffffffffffffffffffffffffffffffffff161461102f57600160035f8773ffffffffffffffffffffffffffffffffffffffff1673ffffffffffffffffffffffffffffffffffffffff1681526020019081526020015f205f82825401925050819055505b8460025f8681526020019081526020015f205f6101000a81548173ffffffffffffffffffffffffffffffffffffffff021916908373ffffffffffffffffffffffffffffffffffffffff160217905550838573ffffffffffffffffffffffffffffffffffffffff168273ffffffffffffffffffffffffffffffffffffffff167fddf252ad1be2c89b69c2b068fc378daa952ba7f163c4a11628f55a4df523b3ef60405160405180910390a4809150509392505050565b5f5f73ffffffffffffffffffffffffffffffffffffffff1660085f8481526020019081526020015f205f9054906101000a900473ffffffffffffffffffffffffffffffffffffffff1673ffffffffffffffffffffffffffffffffffffffff1614159050919050565b5f73ffffffffffffffffffffffffffffffffffffffff168273ffffffffffffffffffffffffffffffffffffffff16036111bc575f6040517f64a0ae920000000000000000000000000000000000000000000000000000000081526004016111b39190611fcc565b60405180910390fd5b5f6111c883835f610ed9565b90505f73ffffffffffffffffffffffffffffffffffffffff168173ffffffffffffffffffffffffffffffffffffffff161461123a575f6040517f73c6ac6e0000000000000000000000000000000000000000000000000000000081526004016112319190611fcc565b60405180910390fd5b505050565b8060065f8481526020019081526020015f20908161125d91906128bd565b507ff8e1a15aba9398e019f0b49df1a4fde98ee17ae345cb5f6b5e2c27f5033e8ce78260405161128d9190611e8f565b60405180910390a15050565b5f6112a55f835f610ed9565b90505f73ffffffffffffffffffffffffffffffffffffffff168173ffffffffffffffffffffffffffffffffffffffff160361131757816040517f7e27328900000000000000000000000000000000000000000000000000000000815260040161130e9190611e8f565b60405180910390fd5b5050565b5f73ffffffffffffffffffffffffffffffffffffffff168273ffffffffffffffffffffffffffffffffffffffff160361138b57816040517f5b08ba180000000000000000000000000000000000000000000000000000000081526004016113829190611fcc565b60405180910390fd5b8060055f8573ffffffffffffffffffffffffffffffffffffffff1673ffffffffffffffffffffffffffffffffffffffff1681526020019081526020015f205f8473ffffffffffffffffffffffffffffffffffffffff1673ffffffffffffffffffffffffffffffffffffffff1681526020019081526020015f205f6101000a81548160ff0219169083151502179055508173ffffffffffffffffffffffffffffffffffffffff168373ffffffffffffffffffffffffffffffffffffffff167f17307eab39ab6107e8899845ad3d59bd9653f200f220920489ca2b5937696c31836040516114779190611e5e565b60405180910390a3505050565b5f8373ffffffffffffffffffffffffffffffffffffffff163b1115611629578273ffffffffffffffffffffffffffffffffffffffff1663150b7a02868685856040518563ffffffff1660e01b81526004016114e294939291906129de565b6020604051808303815f875af192505050801561151d57506040513d601f19601f8201168201806040525081019061151a9190612a3c565b60015b61159e573d805f811461154b576040519150601f19603f3d011682016040523d82523d5f602084013e611550565b606091505b505f81510361159657836040517f64a0ae9200000000000000000000000000000000000000000000000000000000815260040161158d9190611fcc565b60405180910390fd5b805160208201fd5b63150b7a0260e01b7bffffffffffffffffffffffffffffffffffffffffffffffffffffffff1916817bffffffffffffffffffffffffffffffffffffffffffffffffffffffff19161461162757836040517f64a0ae9200000000000000000000000000000000000000000000000000000000815260040161161e9190611fcc565b60405180910390fd5b505b5050505050565b60606040518060400160405280600781526020017f697066733a2f2f00000000000000000000000000000000000000000000000000815250905090565b606061167882610e01565b505f611682611630565b90505f8151116116a05760405180602001604052805f8152506116cb565b806116aa84611a6f565b6040516020016116bb9291906126fa565b6040516020818303038152906040525b915050919050565b5f7f80ac58cd000000000000000000000000000000000000000000000000000000007bffffffffffffffffffffffffffffffffffffffffffffffffffffffff1916827bffffffffffffffffffffffffffffffffffffffffffffffffffffffff1916148061179d57507f5b5e139f000000000000000000000000000000000000000000000000000000007bffffffffffffffffffffffffffffffffffffffffffffffffffffffff1916827bffffffffffffffffffffffffffffffffffffffffffffffffffffffff1916145b806117ad57506117ac82611b39565b5b9050919050565b5f60025f8381526020019081526020015f205f9054906101000a900473ffffffffffffffffffffffffffffffffffffffff169050919050565b808061182557505f73ffffffffffffffffffffffffffffffffffffffff168273ffffffffffffffffffffffffffffffffffffffff1614155b15611957575f61183484610e01565b90505f73ffffffffffffffffffffffffffffffffffffffff168373ffffffffffffffffffffffffffffffffffffffff161415801561189e57508273ffffffffffffffffffffffffffffffffffffffff168173ffffffffffffffffffffffffffffffffffffffff1614155b80156118b157506118af8184610d13565b155b156118f357826040517fa9fbf51f0000000000000000000000000000000000000000000000000000000081526004016118ea9190611fcc565b60405180910390fd5b811561195557838573ffffffffffffffffffffffffffffffffffffffff168273ffffffffffffffffffffffffffffffffffffffff167f8c5be1e5ebec7d5bd14f71427d1e84f3dd0314c0f7b2291e5b200ac8c7c3b92560405160405180910390a45b505b8360045f8581526020019081526020015f205f6101000a81548173ffffffffffffffffffffffffffffffffffffffff021916908373ffffffffffffffffffffffffffffffffffffffff16021790555050505050565b6119b7838383611ba2565b611a6a575f73ffffffffffffffffffffffffffffffffffffffff168373ffffffffffffffffffffffffffffffffffffffff1603611a2b57806040517f7e273289000000000000000000000000000000000000000000000000000000008152600401611a229190611e8f565b60405180910390fd5b81816040517f177e802f000000000000000000000000000000000000000000000000000000008152600401611a61929190612a67565b60405180910390fd5b505050565b60605f6001611a7d84611c62565b0190505f8167ffffffffffffffff811115611a9b57611a9a6121a7565b5b6040519080825280601f01601f191660200182016040528015611acd5781602001600182028036833780820191505090505b5090505f82602083010190505b600115611b2e578080600190039150507f3031323334353637383961626364656600000000000000000000000000000000600a86061a8153600a8581611b2357611b22612a8e565b5b0494505f8503611ada575b819350505050919050565b5f7f01ffc9a7000000000000000000000000000000000000000000000000000000007bffffffffffffffffffffffffffffffffffffffffffffffffffffffff1916827bffffffffffffffffffffffffffffffffffffffffffffffffffffffff1916149050919050565b5f5f73ffffffffffffffffffffffffffffffffffffffff168373ffffffffffffffffffffffffffffffffffffffff1614158015611c5957508273ffffffffffffffffffffffffffffffffffffffff168473ffffffffffffffffffffffffffffffffffffffff161480611c1a5750611c198484610d13565b5b80611c5857508273ffffffffffffffffffffffffffffffffffffffff16611c4083610e87565b73ffffffffffffffffffffffffffffffffffffffff16145b5b90509392505050565b5f5f5f90507a184f03e93ff9f4daa797ed6e38ed64bf6a1f0100000000000000008310611cbe577a184f03e93ff9f4daa797ed6e38ed64bf6a1f0100000000000000008381611cb457611cb3612a8e565b5b0492506040810190505b6d04ee2d6d415b85acef81000000008310611cfb576d04ee2d6d415b85acef81000000008381611cf157611cf0612a8e565b5b0492506020810190505b662386f26fc100008310611d2a57662386f26fc100008381611d2057611d1f612a8e565b5b0492506010810190505b6305f5e1008310611d53576305f5e1008381611d4957611d48612a8e565b5b0492506008810190505b6127108310611d78576127108381611d6e57611d6d612a8e565b5b0492506004810190505b60648310611d9b5760648381611d9157611d90612a8e565b5b0492506002810190505b600a8310611daa576001810190505b80915050919050565b5f604051905090565b5f5ffd5b5f5ffd5b5f7fffffffff0000000000000000000000000000000000000000000000000000000082169050919050565b611df881611dc4565b8114611e02575f5ffd5b50565b5f81359050611e1381611def565b92915050565b5f60208284031215611e2e57611e2d611dbc565b5b5f611e3b84828501611e05565b91505092915050565b5f8115159050919050565b611e5881611e44565b82525050565b5f602082019050611e715f830184611e4f565b92915050565b5f819050919050565b611e8981611e77565b82525050565b5f602082019050611ea25f830184611e80565b92915050565b5f81519050919050565b5f82825260208201905092915050565b8281835e5f83830152505050565b5f601f19601f8301169050919050565b5f611eea82611ea8565b611ef48185611eb2565b9350611f04818560208601611ec2565b611f0d81611ed0565b840191505092915050565b5f6020820190508181035f830152611f308184611ee0565b905092915050565b611f4181611e77565b8114611f4b575f5ffd5b50565b5f81359050611f5c81611f38565b92915050565b5f60208284031215611f7757611f76611dbc565b5b5f611f8484828501611f4e565b91505092915050565b5f73ffffffffffffffffffffffffffffffffffffffff82169050919050565b5f611fb682611f8d565b9050919050565b611fc681611fac565b82525050565b5f602082019050611fdf5f830184611fbd565b92915050565b611fee81611fac565b8114611ff8575f5ffd5b50565b5f8135905061200981611fe5565b92915050565b5f5f6040838503121561202557612024611dbc565b5b5f61203285828601611ffb565b925050602061204385828601611f4e565b9150509250929050565b5f5f5f6060848603121561206457612063611dbc565b5b5f61207186828701611ffb565b935050602061208286828701611ffb565b925050604061209386828701611f4e565b9150509250925092565b5f602082840312156120b2576120b1611dbc565b5b5f6120bf84828501611ffb565b91505092915050565b5f81519050919050565b5f82825260208201905092915050565b5f819050602082019050919050565b6120fa81611e77565b82525050565b5f61210b83836120f1565b60208301905092915050565b5f602082019050919050565b5f61212d826120c8565b61213781856120d2565b9350612142836120e2565b805f5b838110156121725781516121598882612100565b975061216483612117565b925050600181019050612145565b5085935050505092915050565b5f6020820190508181035f8301526121978184612123565b905092915050565b5f5ffd5b5f5ffd5b7f4e487b71000000000000000000000000000000000000000000000000000000005f52604160045260245ffd5b6121dd82611ed0565b810181811067ffffffffffffffff821117156121fc576121fb6121a7565b5b80604052505050565b5f61220e611db3565b905061221a82826121d4565b919050565b5f67ffffffffffffffff821115612239576122386121a7565b5b61224282611ed0565b9050602081019050919050565b828183375f83830152505050565b5f61226f61226a8461221f565b612205565b90508281526020810184848401111561228b5761228a6121a3565b5b61229684828561224f565b509392505050565b5f82601f8301126122b2576122b161219f565b5b81356122c284826020860161225d565b91505092915050565b5f5f604083850312156122e1576122e0611dbc565b5b5f83013567ffffffffffffffff8111156122fe576122fd611dc0565b5b61230a8582860161229e565b925050602061231b85828601611ffb565b9150509250929050565b61232e81611e44565b8114612338575f5ffd5b50565b5f8135905061234981612325565b92915050565b5f5f6040838503121561236557612364611dbc565b5b5f61237285828601611ffb565b92505060206123838582860161233b565b9150509250929050565b5f67ffffffffffffffff8211156123a7576123a66121a7565b5b6123b082611ed0565b9050602081019050919050565b5f6123cf6123ca8461238d565b612205565b9050828152602081018484840111156123eb576123ea6121a3565b5b6123f684828561224f565b509392505050565b5f82601f8301126124125761241161219f565b5b81356124228482602086016123bd565b91505092915050565b5f5f5f5f6080858703121561244357612442611dbc565b5b5f61245087828801611ffb565b945050602061246187828801611ffb565b935050604061247287828801611f4e565b925050606085013567ffffffffffffffff81111561249357612492611dc0565b5b61249f878288016123fe565b91505092959194509250565b5f5f604083850312156124c1576124c0611dbc565b5b5f6124ce85828601611ffb565b92505060206124df85828601611ffb565b9150509250929050565b7f4e487b71000000000000000000000000000000000000000000000000000000005f52602260045260245ffd5b5f600282049050600182168061252d57607f821691505b6020821081036125405761253f6124e9565b5b50919050565b5f6060820190506125595f830186611fbd565b6125666020830185611e80565b6125736040830184611fbd565b949350505050565b7f4e487b71000000000000000000000000000000000000000000000000000000005f52601160045260245ffd5b5f6125b282611e77565b91507fffffffffffffffffffffffffffffffffffffffffffffffffffffffffffffffff82036125e4576125e361257b565b5b600182019050919050565b7f4e487b71000000000000000000000000000000000000000000000000000000005f52603260045260245ffd5b7f546f6b656e20646f6573206e6f742065786973740000000000000000000000005f82015250565b5f612650601483611eb2565b915061265b8261261c565b602082019050919050565b5f6020820190508181035f83015261267d81612644565b9050919050565b5f6060820190506126975f830186611e80565b81810360208301526126a98185611ee0565b90506126b86040830184611fbd565b949350505050565b5f81905092915050565b5f6126d482611ea8565b6126de81856126c0565b93506126ee818560208601611ec2565b80840191505092915050565b5f61270582856126ca565b915061271182846126ca565b91508190509392505050565b5f819050815f5260205f209050919050565b5f6020601f8301049050919050565b5f82821b905092915050565b5f600883026127797fffffffffffffffffffffffffffffffffffffffffffffffffffffffffffffffff8261273e565b612783868361273e565b95508019841693508086168417925050509392505050565b5f819050919050565b5f6127be6127b96127b484611e77565b61279b565b611e77565b9050919050565b5f819050919050565b6127d7836127a4565b6127eb6127e3826127c5565b84845461274a565b825550505050565b5f5f905090565b6128026127f3565b61280d8184846127ce565b505050565b5b81811015612830576128255f826127fa565b600181019050612813565b5050565b601f821115612875576128468161271d565b61284f8461272f565b8101602085101561285e578190505b61287261286a8561272f565b830182612812565b50505b505050565b5f82821c905092915050565b5f6128955f198460080261287a565b1980831691505092915050565b5f6128ad8383612886565b9150826002028217905092915050565b6128c682611ea8565b67ffffffffffffffff8111156128df576128de6121a7565b5b6128e98254612516565b6128f4828285612834565b5f60209050601f831160018114612925575f8415612913578287015190505b61291d85826128a2565b865550612984565b601f1984166129338661271d565b5f5b8281101561295a57848901518255600182019150602085019450602081019050612935565b868310156129775784890151612973601f891682612886565b8355505b6001600288020188555050505b505050505050565b5f81519050919050565b5f82825260208201905092915050565b5f6129b08261298c565b6129ba8185612996565b93506129ca818560208601611ec2565b6129d381611ed0565b840191505092915050565b5f6080820190506129f15f830187611fbd565b6129fe6020830186611fbd565b612a0b6040830185611e80565b8181036060830152612a1d81846129a6565b905095945050505050565b5f81519050612a3681611def565b92915050565b5f60208284031215612a5157612a50611dbc565b5b5f612a5e84828501612a28565b91505092915050565b5f604082019050612a7a5f830185611fbd565b612a876020830184611e80565b9392505050565b7f4e487b71000000000000000000000000000000000000000000000000000000005f52601260045260245ffdfea2646970667358221220d80bdf0be8bf11bd61df1ffdca790a399cfb1f19fd28b92cdf536c4d346fc72a64736f6c634300081c0033",
  "linkReferences": {},
  "deployedLinkReferences": {},
  "immutableReferences": {},
  "inputSourceName": "project/contracts/MusiCat.sol",
  "buildInfoId": "solc-0_8_28-ae1dc44667fe9349cf9aa2b3db8d4469da01bf7f"
}