{
  "_format": "hh-sol-artifact-1",
  "contractName": "MusiCat",
  "sourceName": "contracts/MusiCat.sol",
  "abi": [
    {
      "inputs": [],
      "stateMutability": "nonpayable",
      "type": "constructor"
    },
    {
      "inputs": [
        {
          "internalType": "address",
          "name": "sender",
          "type": "address"
        },
        {
          "internalType": "uint256",
          "name": "tokenId",
          "type": "uint256"
        },
        {
          "internalType": "address",
          "name": "owner",
          "type": "address"
        }
      ],
      "name": "ERC721IncorrectOwner",
      "type": "error"
    },
    {
      "inputs": [
        {
          "internalType": "address",
          "name": "operator",
          "type": "address"
        },
        {
          "internalType": "uint256",
          "name": "tokenId",
          "type": "uint256"
        }
      ],
      "name": "ERC721InsufficientApproval",
      "type": "error"
    },
    {
      "inputs": [
        {
          "internalType": "address",
          "name": "approver",
          "type": "address"
        }
      ],
      "name": "ERC721InvalidApprover",
      "type": "error"
    },
    {
      "inputs": [
        {
          "internalType": "address",
          "name": "operator",
          "type": "address"
        }
      ],
      "name": "ERC721InvalidOperator",
      "type": "error"
    },
    {
      "inputs": [
        {
          "internalType": "address",
          "name": "owner",
          "type": "address"
        }
      ],
      "name": "ERC721InvalidOwner",
      "type": "error"
    },
    {
      "inputs": [
        {
          "internalType": "address",
          "name": "receiver",
          "type": "address"
        }
      ],
      "name": "ERC721InvalidReceiver",
      "type": "error"
    },
    {
      "inputs": [
        {
          "internalType": "address",
          "name": "sender",
          "type": "address"
        }
      ],
      "name": "ERC721InvalidSender",
      "type": "error"
    },
    {
      "inputs": [
        {
          "internalType": "uint256",
          "name": "tokenId",
          "type": "uint256"
        }
      ],
      "name": "ERC721NonexistentToken",
      "type": "error"
    },
    {
      "anonymous": false,
      "inputs": [
        {
          "indexed": true,
          "internalType": "address",
          "name": "owner",
          "type": "address"
        },
        {
          "indexed": true,
          "internalType": "address",
          "name": "approved",
          "type": "address"
        },
        {
          "indexed": true,
          "internalType": "uint256",
          "name": "tokenId",
          "type": "uint256"
        }
      ],
      "name": "Approval",
      "type": "event"
    },
    {
      "anonymous": false,
      "inputs": [
        {
          "indexed": true,
          "internalType": "address",
          "name": "owner",
          "type": "address"
        },
        {
          "indexed": true,
          "internalType": "address",
          "name": "operator",
          "type": "address"
        },
        {
          "indexed": false,
          "internalType": "bool",
          "name": "approved",
          "type": "bool"
        }
      ],
      "name": "ApprovalForAll",
      "type": "event"
    },
    {
      "anonymous": false,
      "inputs": [
        {
          "indexed": false,
          "internalType": "uint256",
          "name": "tokenId",
          "type": "uint256"
        },
        {
          "indexed": false,
          "internalType": "string",
          "name": "tokenURI",
          "type": "string"
        },
        {
          "indexed": false,
          "internalType": "address",
          "name": "marketPlaceAddress",
          "type": "address"
        }
      ],
      "name": "AssetMinted",
      "type": "event"
    },
    {
      "anonymous": false,
      "inputs": [
        {
          "indexed": false,
          "internalType": "uint256",
          "name": "_fromTokenId",
          "type": "uint256"
        },
        {
          "indexed": false,
          "internalType": "uint256",
          "name": "_toTokenId",
          "type": "uint256"
        }
      ],
      "name": "BatchMetadataUpdate",
      "type": "event"
    },
    {
      "anonymous": false,
      "inputs": [
        {
          "indexed": false,
          "internalType": "uint256",
          "name": "_tokenId",
          "type": "uint256"
        }
      ],
      "name": "MetadataUpdate",
      "type": "event"
    },
    {
      "anonymous": false,
      "inputs": [
        {
          "indexed": true,
          "internalType": "address",
          "name": "from",
          "type": "address"
        },
        {
          "indexed": true,
          "internalType": "address",
          "name": "to",
          "type": "address"
        },
        {
          "indexed": true,
          "internalType": "uint256",
          "name": "tokenId",
          "type": "uint256"
        }
      ],
      "name": "Transfer",
      "type": "event"
    },
    {
      "inputs": [
        {
          "internalType": "address",
          "name": "to",
          "type": "address"
        },
        {
          "internalType": "uint256",
          "name": "tokenId",
          "type": "uint256"
        }
      ],
      "name": "approve",
      "outputs": [],
      "stateMutability": "nonpayable",
      "type": "function"
    },
    {
      "inputs": [
        {
          "internalType": "address",
          "name": "owner",
          "type": "address"
        }
      ],
      "name": "balanceOf",
      "outputs": [
        {
          "internalType": "uint256",
          "name": "",
          "type": "uint256"
        }
      ],
      "stateMutability": "view",
      "type": "function"
    },
    {
      "inputs": [
        {
          "internalType": "uint256",
          "name": "tokenId",
          "type": "uint256"
        }
      ],
      "name": "burnAsset",
      "outputs": [],
      "stateMutability": "nonpayable",
      "type": "function"
    },
    {
      "inputs": [
        {
          "internalType": "uint256",
          "name": "tokenId",
          "type": "uint256"
        }
      ],
      "name": "getApproved",
      "outputs": [
        {
          "internalType": "address",
          "name": "",
          "type": "address"
        }
      ],
      "stateMutability": "view",
      "type": "function"
    },
    {
      "inputs": [
        {
          "internalType": "uint256",
          "name": "tokenId",
          "type": "uint256"
        }
      ],
      "name": "getAssetById",
      "outputs": [
        {
          "internalType": "string",
          "name": "",
          "type": "string"
        }
      ],
      "stateMutability": "view",
      "type": "function"
    },
    {
      "inputs": [
        {
          "internalType": "address",
          "name": "sender",
          "type": "address"
        }
      ],
      "name": "getAssetOwnedBySender",
      "outputs": [
        {
          "internalType": "uint256[]",
          "name": "",
          "type": "uint256[]"
        }
      ],
      "stateMutability": "view",
      "type": "function"
    },
    {
      "inputs": [
        {
          "internalType": "address",
          "name": "owner",
          "type": "address"
        }
      ],
      "name": "getBalanceOf",
      "outputs": [
        {
          "internalType": "uint256",
          "name": "",
          "type": "uint256"
        }
      ],
      "stateMutability": "view",
      "type": "function"
    },
    {
      "inputs": [
        {
          "internalType": "uint256",
          "name": "tokenId",
          "type": "uint256"
        }
      ],
      "name": "getMinterById",
      "outputs": [
        {
          "internalType": "address",
          "name": "",
          "type": "address"
        }
      ],
      "stateMutability": "view",
      "type": "function"
    },
    {
      "inputs": [
        {
          "internalType": "address",
          "name": "sender",
          "type": "address"
        }
      ],
      "name": "getTokenCreatedBySender",
      "outputs": [
        {
          "internalType": "uint256[]",
          "name": "",
          "type": "uint256[]"
        }
      ],
      "stateMutability": "view",
      "type": "function"
    },
    {
      "inputs": [
        {
          "internalType": "address",
          "name": "owner",
          "type": "address"
        },
        {
          "internalType": "address",
          "name": "operator",
          "type": "address"
        }
      ],
      "name": "isApprovedForAll",
      "outputs": [
        {
          "internalType": "bool",
          "name": "",
          "type": "bool"
        }
      ],
      "stateMutability": "view",
      "type": "function"
    },
    {
      "inputs": [
        {
          "internalType": "string",
          "name": "uri",
          "type": "string"
        },
        {
          "internalType": "string",
          "name": "preview",
          "type": "string"
        },
        {
          "internalType": "address",
          "name": "marketPlaceAddress",
          "type": "address"
        }
      ],
      "name": "mintAsset",
      "outputs": [
        {
          "internalType": "uint256",
          "name": "",
          "type": "uint256"
        }
      ],
      "stateMutability": "nonpayable",
      "type": "function"
    },
    {
      "inputs": [],
      "name": "name",
      "outputs": [
        {
          "internalType": "string",
          "name": "",
          "type": "string"
        }
      ],
      "stateMutability": "view",
      "type": "function"
    },
    {
      "inputs": [
        {
          "internalType": "uint256",
          "name": "tokenId",
          "type": "uint256"
        }
      ],
      "name": "ownerOf",
      "outputs": [
        {
          "internalType": "address",
          "name": "",
          "type": "address"
        }
      ],
      "stateMutability": "view",
      "type": "function"
    },
    {
      "inputs": [
        {
          "internalType": "uint256",
          "name": "tokenId",
          "type": "uint256"
        }
      ],
      "name": "previewURI",
      "outputs": [
        {
          "internalType": "string",
          "name": "",
          "type": "string"
        }
      ],
      "stateMutability": "view",
      "type": "function"
    },
    {
      "inputs": [
        {
          "internalType": "address",
          "name": "from",
          "type": "address"
        },
        {
          "internalType": "address",
          "name": "to",
          "type": "address"
        },
        {
          "internalType": "uint256",
          "name": "tokenId",
          "type": "uint256"
        }
      ],
      "name": "safeTransferFrom",
      "outputs": [],
      "stateMutability": "nonpayable",
      "type": "function"
    },
    {
      "inputs": [
        {
          "internalType": "address",
          "name": "from",
          "type": "address"
        },
        {
          "internalType": "address",
          "name": "to",
          "type": "address"
        },
        {
          "internalType": "uint256",
          "name": "tokenId",
          "type": "uint256"
        },
        {
          "internalType": "bytes",
          "name": "data",
          "type": "bytes"
        }
      ],
      "name": "safeTransferFrom",
      "outputs": [],
      "stateMutability": "nonpayable",
      "type": "function"
    },
    {
      "inputs": [
        {
          "internalType": "address",
          "name": "operator",
          "type": "address"
        },
        {
          "internalType": "bool",
          "name": "approved",
          "type": "bool"
        }
      ],
      "name": "setApprovalForAll",
      "outputs": [],
      "stateMutability": "nonpayable",
      "type": "function"
    },
    {
      "inputs": [
        {
          "internalType": "bytes4",
          "name": "interfaceId",
          "type": "bytes4"
        }
      ],
      "name": "supportsInterface",
      "outputs": [
        {
          "internalType": "bool",
          "name": "",
          "type": "bool"
        }
      ],
      "stateMutability": "view",
      "type": "function"
    },
    {
      "inputs": [],
      "name": "symbol",
      "outputs": [
        {
          "internalType": "string",
          "name": "",
          "type": "string"
        }
      ],
      "stateMutability": "view",
      "type": "function"
    },
    {
      "inputs": [
        {
          "internalType": "uint256",
          "name": "tokenId",
          "type": "uint256"
        }
      ],
      "name": "tokenURI",
      "outputs": [
        {
          "internalType": "string",
          "name": "",
          "type": "string"
        }
      ],
      "stateMutability": "view",
      "type": "function"
    },
    {
      "inputs": [
        {
          "internalType": "address",
          "name": "from",
          "type": "address"
        },
        {
          "internalType": "address",
          "name": "to",
          "type": "address"
        },
        {
          "internalType": "uint256",
          "name": "tokenId",
          "type": "uint256"
        }
      ],
      "name": "transferFrom",
      "outputs": [],
      "stateMutability": "nonpayable",
      "type": "function"
    }
  ],
  "bytecode": "0x6080604052600060075534801561001557600080fd5b506040518060400160405280600781526020017f4d757369436174000000000000000000000000000000000000000000000000008152506040518060400160405280600381526020017f4d53430000000000000000000000000000000000000000000000000000000000815250816000908161009191906102f9565b5080600190816100a191906102f9565b5050506103cb565b600081519050919050565b7f4e487b7100000000000000000000000000000000000000000000000000000000600052604160045260246000fd5b7f4e487b7100000000000000000000000000000000000000000000000000000000600052602260045260246000fd5b6000600282049050600182168061012a57607f821691505b60208210810361013d5761013c6100e3565b5b50919050565b60008190508160005260206000209050919050565b60006020601f8301049050919050565b600082821b905092915050565b6000600883026101a57fffffffffffffffffffffffffffffffffffffffffffffffffffffffffffffffff82610168565b6101af8683610168565b95508019841693508086168417925050509392505050565b6000819050919050565b6000819050919050565b60006101f66101f16101ec846101c7565b6101d1565b6101c7565b9050919050565b6000819050919050565b610210836101db565b61022461021c826101fd565b848454610175565b825550505050565b600090565b61023961022c565b610244818484610207565b505050565b5b818110156102685761025d600082610231565b60018101905061024a565b5050565b601f8211156102ad5761027e81610143565b61028784610158565b81016020851015610296578190505b6102aa6102a285610158565b830182610249565b50505b505050565b600082821c905092915050565b60006102d0600019846008026102b2565b1980831691505092915050565b60006102e983836102bf565b9150826002028217905092915050565b610302826100a9565b67ffffffffffffffff81111561031b5761031a6100b4565b5b6103258254610112565b61033082828561026c565b600060209050601f8311600181146103635760008415610351578287015190505b61035b85826102dd565b8655506103c3565b601f19841661037186610143565b60005b8281101561039957848901518255600182019150602085019450602081019050610374565b868310156103b657848901516103b2601f8916826102bf565b8355505b6001600288020188555050505b505050505050565b612aa1806103da6000396000f3fe608060405234801561001057600080fd5b50600436106101375760003560e01c806370a08231116100b8578063a22cb4651161007c578063a22cb46514610398578063b3e444a7146103b4578063b88d4fde146103e4578063c87b56dd14610400578063e985e9c514610430578063f14e4d661461046057610137565b806370a08231146102ce5780637b10b3c3146102fe5780638f08d44d1461032e57806395d89b411461034a5780639b96eece1461036857610137565b80632e8abfe0116100ff5780632e8abfe0146101f257806342842e0e1461022257806357c2119d1461023e5780635af613001461026e5780636352211e1461029e57610137565b806301ffc9a71461013c57806306fdde031461016c578063081812fc1461018a578063095ea7b3146101ba57806323b872dd146101d6575b600080fd5b61015660048036038101906101519190611da0565b610490565b6040516101639190611de8565b60405180910390f35b6101746104a2565b6040516101819190611e93565b60405180910390f35b6101a4600480360381019061019f9190611eeb565b610534565b6040516101b19190611f59565b60405180910390f35b6101d460048036038101906101cf9190611fa0565b610550565b005b6101f060048036038101906101eb9190611fe0565b610566565b005b61020c60048036038101906102079190612033565b610668565b604051610219919061211e565b60405180910390f35b61023c60048036038101906102379190611fe0565b6107b6565b005b61025860048036038101906102539190612033565b6107d6565b604051610265919061211e565b60405180910390f35b61028860048036038101906102839190611eeb565b610970565b6040516102959190611e93565b60405180910390f35b6102b860048036038101906102b39190611eeb565b610a15565b6040516102c59190611f59565b60405180910390f35b6102e860048036038101906102e39190612033565b610a27565b6040516102f5919061214f565b60405180910390f35b61031860048036038101906103139190611eeb565b610ae1565b6040516103259190611f59565b60405180910390f35b61034860048036038101906103439190611eeb565b610b1e565b005b610352610c3f565b60405161035f9190611e93565b60405180910390f35b610382600480360381019061037d9190612033565b610cd1565b60405161038f919061214f565b60405180910390f35b6103b260048036038101906103ad9190612196565b610ce3565b005b6103ce60048036038101906103c99190611eeb565b610cf9565b6040516103db9190611e93565b60405180910390f35b6103fe60048036038101906103f9919061230b565b610d9e565b005b61041a60048036038101906104159190611eeb565b610dc3565b6040516104279190611e93565b60405180910390f35b61044a6004803603810190610445919061238e565b610e68565b6040516104579190611de8565b60405180910390f35b61047a6004803603810190610475919061246f565b610efc565b604051610487919061214f565b60405180910390f35b600061049b8261100b565b9050919050565b6060600080546104b190612529565b80601f01602080910402602001604051908101604052809291908181526020018280546104dd90612529565b801561052a5780601f106104ff5761010080835404028352916020019161052a565b820191906000526020600020905b81548152906001019060200180831161050d57829003601f168201915b5050505050905090565b600061053f8261106c565b50610549826110f4565b9050919050565b610562828261055d611131565b611139565b5050565b600073ffffffffffffffffffffffffffffffffffffffff168273ffffffffffffffffffffffffffffffffffffffff16036105d85760006040517f64a0ae920000000000000000000000000000000000000000000000000000000081526004016105cf9190611f59565b60405180910390fd5b60006105ec83836105e7611131565b61114b565b90508373ffffffffffffffffffffffffffffffffffffffff168173ffffffffffffffffffffffffffffffffffffffff1614610662578382826040517f64283d7b0000000000000000000000000000000000000000000000000000000081526004016106599392919061255a565b60405180910390fd5b50505050565b6060600061067583610a27565b9050600081116106d157600067ffffffffffffffff81111561069a576106996121e0565b5b6040519080825280602002602001820160405280156106c85781602001602082028036833780820191505090505b509150506107b1565b60008167ffffffffffffffff8111156106ed576106ec6121e0565b5b60405190808252806020026020018201604052801561071b5781602001602082028036833780820191505090505b5090506000805b6007548110156107a957838210156107a9578573ffffffffffffffffffffffffffffffffffffffff1661075482610a15565b73ffffffffffffffffffffffffffffffffffffffff160361079c578083838061077c906125c0565b94508151811061078f5761078e612608565b5b6020026020010181815250505b8080600101915050610722565b508193505050505b919050565b6107d183838360405180602001604052806000815250610d9e565b505050565b60606000805b600754811015610868578373ffffffffffffffffffffffffffffffffffffffff166009600083815260200190815260200160002060009054906101000a900473ffffffffffffffffffffffffffffffffffffffff1673ffffffffffffffffffffffffffffffffffffffff160361085b578180610857906125c0565b9250505b80806001019150506107dc565b5060008167ffffffffffffffff811115610885576108846121e0565b5b6040519080825280602002602001820160405280156108b35781602001602082028036833780820191505090505b5090506000805b600754811015610964578573ffffffffffffffffffffffffffffffffffffffff166009600083815260200190815260200160002060009054906101000a900473ffffffffffffffffffffffffffffffffffffffff1673ffffffffffffffffffffffffffffffffffffffff16036109575780838380610937906125c0565b94508151811061094a57610949612608565b5b6020026020010181815250505b80806001019150506108ba565b50819350505050919050565b6060600a6000838152602001908152602001600020805461099090612529565b80601f01602080910402602001604051908101604052809291908181526020018280546109bc90612529565b8015610a095780601f106109de57610100808354040283529160200191610a09565b820191906000526020600020905b8154815290600101906020018083116109ec57829003601f168201915b50505050509050919050565b6000610a208261106c565b9050919050565b60008073ffffffffffffffffffffffffffffffffffffffff168273ffffffffffffffffffffffffffffffffffffffff1603610a9a5760006040517f89c62b64000000000000000000000000000000000000000000000000000000008152600401610a919190611f59565b60405180910390fd5b600360008373ffffffffffffffffffffffffffffffffffffffff1673ffffffffffffffffffffffffffffffffffffffff168152602001908152602001600020549050919050565b60006009600083815260200190815260200160002060009054906101000a900473ffffffffffffffffffffffffffffffffffffffff169050919050565b3373ffffffffffffffffffffffffffffffffffffffff166009600083815260200190815260200160002060009054906101000a900473ffffffffffffffffffffffffffffffffffffffff1673ffffffffffffffffffffffffffffffffffffffff1614610bbf576040517f08c379a0000000000000000000000000000000000000000000000000000000008152600401610bb690612683565b60405180910390fd5b600860008281526020019081526020016000206000610bde9190611cd7565b6009600082815260200190815260200160002060006101000a81549073ffffffffffffffffffffffffffffffffffffffff0219169055600a60008281526020019081526020016000206000610c339190611cd7565b610c3c81611365565b50565b606060018054610c4e90612529565b80601f0160208091040260200160405190810160405280929190818152602001828054610c7a90612529565b8015610cc75780601f10610c9c57610100808354040283529160200191610cc7565b820191906000526020600020905b815481529060010190602001808311610caa57829003601f168201915b5050505050905090565b6000610cdc82610a27565b9050919050565b610cf5610cee611131565b83836113eb565b5050565b6060600860008381526020019081526020016000208054610d1990612529565b80601f0160208091040260200160405190810160405280929190818152602001828054610d4590612529565b8015610d925780601f10610d6757610100808354040283529160200191610d92565b820191906000526020600020905b815481529060010190602001808311610d7557829003601f168201915b50505050509050919050565b610da9848484610566565b610dbd610db4611131565b8585858561155a565b50505050565b6060600860008381526020019081526020016000208054610de390612529565b80601f0160208091040260200160405190810160405280929190818152602001828054610e0f90612529565b8015610e5c5780601f10610e3157610100808354040283529160200191610e5c565b820191906000526020600020905b815481529060010190602001808311610e3f57829003601f168201915b50505050509050919050565b6000600560008473ffffffffffffffffffffffffffffffffffffffff1673ffffffffffffffffffffffffffffffffffffffff16815260200190815260200160002060008373ffffffffffffffffffffffffffffffffffffffff1673ffffffffffffffffffffffffffffffffffffffff16815260200190815260200160002060009054906101000a900460ff16905092915050565b6000806007549050610f0e338261170b565b84600860008381526020019081526020016000209081610f2e919061284f565b50336009600083815260200190815260200160002060006101000a81548173ffffffffffffffffffffffffffffffffffffffff021916908373ffffffffffffffffffffffffffffffffffffffff16021790555083600a60008381526020019081526020016000209081610fa1919061284f565b5060076000815480929190610fb5906125c0565b9190505550610fc5836001610ce3565b7fd795f81e396978efe4b953561251f092354cd8282d26b4c9ebe648f61b2a71cd818685604051610ff893929190612921565b60405180910390a1809150509392505050565b6000634906490660e01b7bffffffffffffffffffffffffffffffffffffffffffffffffffffffff1916827bffffffffffffffffffffffffffffffffffffffffffffffffffffffff19161480611065575061106482611804565b5b9050919050565b600080611078836118e6565b9050600073ffffffffffffffffffffffffffffffffffffffff168173ffffffffffffffffffffffffffffffffffffffff16036110eb57826040517f7e2732890000000000000000000000000000000000000000000000000000000081526004016110e2919061214f565b60405180910390fd5b80915050919050565b60006004600083815260200190815260200160002060009054906101000a900473ffffffffffffffffffffffffffffffffffffffff169050919050565b600033905090565b6111468383836001611923565b505050565b600080611157846118e6565b9050600073ffffffffffffffffffffffffffffffffffffffff168373ffffffffffffffffffffffffffffffffffffffff161461119957611198818486611ae8565b5b600073ffffffffffffffffffffffffffffffffffffffff168173ffffffffffffffffffffffffffffffffffffffff161461122a576111db600085600080611923565b6001600360008373ffffffffffffffffffffffffffffffffffffffff1673ffffffffffffffffffffffffffffffffffffffff168152602001908152602001600020600082825403925050819055505b600073ffffffffffffffffffffffffffffffffffffffff168573ffffffffffffffffffffffffffffffffffffffff16146112ad576001600360008773ffffffffffffffffffffffffffffffffffffffff1673ffffffffffffffffffffffffffffffffffffffff168152602001908152602001600020600082825401925050819055505b846002600086815260200190815260200160002060006101000a81548173ffffffffffffffffffffffffffffffffffffffff021916908373ffffffffffffffffffffffffffffffffffffffff160217905550838573ffffffffffffffffffffffffffffffffffffffff168273ffffffffffffffffffffffffffffffffffffffff167fddf252ad1be2c89b69c2b068fc378daa952ba7f163c4a11628f55a4df523b3ef60405160405180910390a4809150509392505050565b6000611374600083600061114b565b9050600073ffffffffffffffffffffffffffffffffffffffff168173ffffffffffffffffffffffffffffffffffffffff16036113e757816040517f7e2732890000000000000000000000000000000000000000000000000000000081526004016113de919061214f565b60405180910390fd5b5050565b600073ffffffffffffffffffffffffffffffffffffffff168273ffffffffffffffffffffffffffffffffffffffff160361145c57816040517f5b08ba180000000000000000000000000000000000000000000000000000000081526004016114539190611f59565b60405180910390fd5b80600560008573ffffffffffffffffffffffffffffffffffffffff1673ffffffffffffffffffffffffffffffffffffffff16815260200190815260200160002060008473ffffffffffffffffffffffffffffffffffffffff1673ffffffffffffffffffffffffffffffffffffffff16815260200190815260200160002060006101000a81548160ff0219169083151502179055508173ffffffffffffffffffffffffffffffffffffffff168373ffffffffffffffffffffffffffffffffffffffff167f17307eab39ab6107e8899845ad3d59bd9653f200f220920489ca2b5937696c318360405161154d9190611de8565b60405180910390a3505050565b60008373ffffffffffffffffffffffffffffffffffffffff163b1115611704578273ffffffffffffffffffffffffffffffffffffffff1663150b7a02868685856040518563ffffffff1660e01b81526004016115b994939291906129b4565b6020604051808303816000875af19250505080156115f557506040513d601f19601f820116820180604052508101906115f29190612a15565b60015b611679573d8060008114611625576040519150601f19603f3d011682016040523d82523d6000602084013e61162a565b606091505b50600081510361167157836040517f64a0ae920000000000000000000000000000000000000000000000000000000081526004016116689190611f59565b60405180910390fd5b805160208201fd5b63150b7a0260e01b7bffffffffffffffffffffffffffffffffffffffffffffffffffffffff1916817bffffffffffffffffffffffffffffffffffffffffffffffffffffffff19161461170257836040517f64a0ae920000000000000000000000000000000000000000000000000000000081526004016116f99190611f59565b60405180910390fd5b505b5050505050565b600073ffffffffffffffffffffffffffffffffffffffff168273ffffffffffffffffffffffffffffffffffffffff160361177d5760006040517f64a0ae920000000000000000000000000000000000000000000000000000000081526004016117749190611f59565b60405180910390fd5b600061178b8383600061114b565b9050600073ffffffffffffffffffffffffffffffffffffffff168173ffffffffffffffffffffffffffffffffffffffff16146117ff5760006040517f73c6ac6e0000000000000000000000000000000000000000000000000000000081526004016117f69190611f59565b60405180910390fd5b505050565b60007f80ac58cd000000000000000000000000000000000000000000000000000000007bffffffffffffffffffffffffffffffffffffffffffffffffffffffff1916827bffffffffffffffffffffffffffffffffffffffffffffffffffffffff191614806118cf57507f5b5e139f000000000000000000000000000000000000000000000000000000007bffffffffffffffffffffffffffffffffffffffffffffffffffffffff1916827bffffffffffffffffffffffffffffffffffffffffffffffffffffffff1916145b806118df57506118de82611bac565b5b9050919050565b60006002600083815260200190815260200160002060009054906101000a900473ffffffffffffffffffffffffffffffffffffffff169050919050565b808061195c5750600073ffffffffffffffffffffffffffffffffffffffff168273ffffffffffffffffffffffffffffffffffffffff1614155b15611a9057600061196c8461106c565b9050600073ffffffffffffffffffffffffffffffffffffffff168373ffffffffffffffffffffffffffffffffffffffff16141580156119d757508273ffffffffffffffffffffffffffffffffffffffff168173ffffffffffffffffffffffffffffffffffffffff1614155b80156119ea57506119e88184610e68565b155b15611a2c57826040517fa9fbf51f000000000000000000000000000000000000000000000000000000008152600401611a239190611f59565b60405180910390fd5b8115611a8e57838573ffffffffffffffffffffffffffffffffffffffff168273ffffffffffffffffffffffffffffffffffffffff167f8c5be1e5ebec7d5bd14f71427d1e84f3dd0314c0f7b2291e5b200ac8c7c3b92560405160405180910390a45b505b836004600085815260200190815260200160002060006101000a81548173ffffffffffffffffffffffffffffffffffffffff021916908373ffffffffffffffffffffffffffffffffffffffff16021790555050505050565b611af3838383611c16565b611ba757600073ffffffffffffffffffffffffffffffffffffffff168373ffffffffffffffffffffffffffffffffffffffff1603611b6857806040517f7e273289000000000000000000000000000000000000000000000000000000008152600401611b5f919061214f565b60405180910390fd5b81816040517f177e802f000000000000000000000000000000000000000000000000000000008152600401611b9e929190612a42565b60405180910390fd5b505050565b60007f01ffc9a7000000000000000000000000000000000000000000000000000000007bffffffffffffffffffffffffffffffffffffffffffffffffffffffff1916827bffffffffffffffffffffffffffffffffffffffffffffffffffffffff1916149050919050565b60008073ffffffffffffffffffffffffffffffffffffffff168373ffffffffffffffffffffffffffffffffffffffff1614158015611cce57508273ffffffffffffffffffffffffffffffffffffffff168473ffffffffffffffffffffffffffffffffffffffff161480611c8f5750611c8e8484610e68565b5b80611ccd57508273ffffffffffffffffffffffffffffffffffffffff16611cb5836110f4565b73ffffffffffffffffffffffffffffffffffffffff16145b5b90509392505050565b508054611ce390612529565b6000825580601f10611cf55750611d14565b601f016020900490600052602060002090810190611d139190611d17565b5b50565b5b80821115611d30576000816000905550600101611d18565b5090565b6000604051905090565b600080fd5b600080fd5b60007fffffffff0000000000000000000000000000000000000000000000000000000082169050919050565b611d7d81611d48565b8114611d8857600080fd5b50565b600081359050611d9a81611d74565b92915050565b600060208284031215611db657611db5611d3e565b5b6000611dc484828501611d8b565b91505092915050565b60008115159050919050565b611de281611dcd565b82525050565b6000602082019050611dfd6000830184611dd9565b92915050565b600081519050919050565b600082825260208201905092915050565b60005b83811015611e3d578082015181840152602081019050611e22565b60008484015250505050565b6000601f19601f8301169050919050565b6000611e6582611e03565b611e6f8185611e0e565b9350611e7f818560208601611e1f565b611e8881611e49565b840191505092915050565b60006020820190508181036000830152611ead8184611e5a565b905092915050565b6000819050919050565b611ec881611eb5565b8114611ed357600080fd5b50565b600081359050611ee581611ebf565b92915050565b600060208284031215611f0157611f00611d3e565b5b6000611f0f84828501611ed6565b91505092915050565b600073ffffffffffffffffffffffffffffffffffffffff82169050919050565b6000611f4382611f18565b9050919050565b611f5381611f38565b82525050565b6000602082019050611f6e6000830184611f4a565b92915050565b611f7d81611f38565b8114611f8857600080fd5b50565b600081359050611f9a81611f74565b92915050565b60008060408385031215611fb757611fb6611d3e565b5b6000611fc585828601611f8b565b9250506020611fd685828601611ed6565b9150509250929050565b600080600060608486031215611ff957611ff8611d3e565b5b600061200786828701611f8b565b935050602061201886828701611f8b565b925050604061202986828701611ed6565b9150509250925092565b60006020828403121561204957612048611d3e565b5b600061205784828501611f8b565b91505092915050565b600081519050919050565b600082825260208201905092915050565b6000819050602082019050919050565b61209581611eb5565b82525050565b60006120a7838361208c565b60208301905092915050565b6000602082019050919050565b60006120cb82612060565b6120d5818561206b565b93506120e08361207c565b8060005b838110156121115781516120f8888261209b565b9750612103836120b3565b9250506001810190506120e4565b5085935050505092915050565b6000602082019050818103600083015261213881846120c0565b905092915050565b61214981611eb5565b82525050565b60006020820190506121646000830184612140565b92915050565b61217381611dcd565b811461217e57600080fd5b50565b6000813590506121908161216a565b92915050565b600080604083850312156121ad576121ac611d3e565b5b60006121bb85828601611f8b565b92505060206121cc85828601612181565b9150509250929050565b600080fd5b600080fd5b7f4e487b7100000000000000000000000000000000000000000000000000000000600052604160045260246000fd5b61221882611e49565b810181811067ffffffffffffffff82111715612237576122366121e0565b5b80604052505050565b600061224a611d34565b9050612256828261220f565b919050565b600067ffffffffffffffff821115612276576122756121e0565b5b61227f82611e49565b9050602081019050919050565b82818337600083830152505050565b60006122ae6122a98461225b565b612240565b9050828152602081018484840111156122ca576122c96121db565b5b6122d584828561228c565b509392505050565b600082601f8301126122f2576122f16121d6565b5b813561230284826020860161229b565b91505092915050565b6000806000806080858703121561232557612324611d3e565b5b600061233387828801611f8b565b945050602061234487828801611f8b565b935050604061235587828801611ed6565b925050606085013567ffffffffffffffff81111561237657612375611d43565b5b612382878288016122dd565b91505092959194509250565b600080604083850312156123a5576123a4611d3e565b5b60006123b385828601611f8b565b92505060206123c485828601611f8b565b9150509250929050565b600067ffffffffffffffff8211156123e9576123e86121e0565b5b6123f282611e49565b9050602081019050919050565b600061241261240d846123ce565b612240565b90508281526020810184848401111561242e5761242d6121db565b5b61243984828561228c565b509392505050565b600082601f830112612456576124556121d6565b5b81356124668482602086016123ff565b91505092915050565b60008060006060848603121561248857612487611d3e565b5b600084013567ffffffffffffffff8111156124a6576124a5611d43565b5b6124b286828701612441565b935050602084013567ffffffffffffffff8111156124d3576124d2611d43565b5b6124df86828701612441565b92505060406124f086828701611f8b565b9150509250925092565b7f4e487b7100000000000000000000000000000000000000000000000000000000600052602260045260246000fd5b6000600282049050600182168061254157607f821691505b602082108103612554576125536124fa565b5b50919050565b600060608201905061256f6000830186611f4a565b61257c6020830185612140565b6125896040830184611f4a565b949350505050565b7f4e487b7100000000000000000000000000000000000000000000000000000000600052601160045260246000fd5b60006125cb82611eb5565b91507fffffffffffffffffffffffffffffffffffffffffffffffffffffffffffffffff82036125fd576125fc612591565b5b600182019050919050565b7f4e487b7100000000000000000000000000000000000000000000000000000000600052603260045260246000fd5b7f4e6f7420746865206f776e6572206f662074686520746f6b656e000000000000600082015250565b600061266d601a83611e0e565b915061267882612637565b602082019050919050565b6000602082019050818103600083015261269c81612660565b9050919050565b60008190508160005260206000209050919050565b60006020601f8301049050919050565b600082821b905092915050565b6000600883026127057fffffffffffffffffffffffffffffffffffffffffffffffffffffffffffffffff826126c8565b61270f86836126c8565b95508019841693508086168417925050509392505050565b6000819050919050565b600061274c61274761274284611eb5565b612727565b611eb5565b9050919050565b6000819050919050565b61276683612731565b61277a61277282612753565b8484546126d5565b825550505050565b600090565b61278f612782565b61279a81848461275d565b505050565b5b818110156127be576127b3600082612787565b6001810190506127a0565b5050565b601f821115612803576127d4816126a3565b6127dd846126b8565b810160208510156127ec578190505b6128006127f8856126b8565b83018261279f565b50505b505050565b600082821c905092915050565b600061282660001984600802612808565b1980831691505092915050565b600061283f8383612815565b9150826002028217905092915050565b61285882611e03565b67ffffffffffffffff811115612871576128706121e0565b5b61287b8254612529565b6128868282856127c2565b600060209050601f8311600181146128b957600084156128a7578287015190505b6128b18582612833565b865550612919565b601f1984166128c7866126a3565b60005b828110156128ef578489015182556001820191506020850194506020810190506128ca565b8683101561290c5784890151612908601f891682612815565b8355505b6001600288020188555050505b505050505050565b60006060820190506129366000830186612140565b81810360208301526129488185611e5a565b90506129576040830184611f4a565b949350505050565b600081519050919050565b600082825260208201905092915050565b60006129868261295f565b612990818561296a565b93506129a0818560208601611e1f565b6129a981611e49565b840191505092915050565b60006080820190506129c96000830187611f4a565b6129d66020830186611f4a565b6129e36040830185612140565b81810360608301526129f5818461297b565b905095945050505050565b600081519050612a0f81611d74565b92915050565b600060208284031215612a2b57612a2a611d3e565b5b6000612a3984828501612a00565b91505092915050565b6000604082019050612a576000830185611f4a565b612a646020830184612140565b939250505056fea264697066735822122019af02cd9480318840915fcc2500f406be3e1e9bc5b6eb027a335411bb25575a64736f6c634300081c0033",
  "linkReferences": {},
  "deployedLinkReferences": {}
}